:100000000C94B6030C94FD030C94FD030C94FD03B7
:100010000C94FD030C94FD030C94FD030C94FD0360
:100020000C94FD030C94FD030C94BC2B0C948E2CAF
:100030000C949B260C94FD030C94FD030C94FD037F
:100040000C94FD030C94FD030C94FD030C94FD0330
:100050000C940E160C94F4260C94FD030C94FD03E2
:100060000C94FD030C94FD030C94FD030C94FD0310
:100070000C94FD030C94FD030C94FD030C94FD0300
:100080000C94FD030C94FD030C94FD030C94FD03F0
:100090000C94FD030C94FD030C94FD030C94FD03E0
:1000A0000C94FD030C94FD030C94FD030A09000954
:1000B0000D095509590959095509590959092E09AF
:1000C000590938094209590959095909590955095C
:1000D00059095909550959091B0959095909520959
:1000E0005209520952095209520952095209520938
:1000F000570959090A09FD0859095909590959099E
:1001000059095909590959095909590957095909E1
:100110005909550959095009500950095009500900
:1001200050095009500950095709FF1302140A14C5
:100130000F14141419141E14231428142D1432141B
:10014000371439143C143F144214451448144A140B
:100150004F146F157115761579157C157F1582155D
:10016000F51BF51B271C271C741C921CB31DB31D0B
:100170009D1C321D431D431DA31DB31DB31DAC1D8E
:10018000531E531E651E651E5C1E651E651E651E84
:10019000531E531E611E651E651E611EFB2C222D03
:1001A0001A2E222D1A2E6E2D912D1A2EE82DF72D96
:1001B00029003A003C003E00400042004400460056
:1001C000480000003B003D003F0041004300450067
:1001D0004700000035001F002100230025002700F4
:1001E0002E0049004B001E002000220024002600A3
:1001F0002D002A004A0000002B001A0015001C00E8
:100200000C00130030004C004E00140008001700D2
:10021000180012002F0031004D00000039001600B8
:1002200009000B000E0033004C0000000000040029
:1002300007000A000D000F00340028000000000035
:10024000E1001D000600050010003700E500000079
:10025000000031001B0019001100360038004C006E
:1002600052000000E000E20000002C000000E60068
:10027000E70050004F00E300000000000000000015
:100280000151E400510000000000000000000000E7
:10029000000000000000000000000000000000005E
:1002A000000000000000000000000000000000004E
:1002B000000000000000000000000000A900000095
:1002C000000000000000000000004C0000000000E2
:1002D0000000C45CC85CCC5C00004600000000006C
:1002E000AA00C35CC55CC95CCD5C00000000015C79
:1002F00000000000000000000000000000000000FE
:1003000000000000000000000000000000000000ED
:100310000000005C00000000000000000000000081
:1003200000000000000000000000000000000000CD
:100330000000000000000000AE000000000000000F
:1003400000000000000000000000AC00AB00000056
:10035000000000000000000001000000AD000000EF
:100360001E0F0500047F3F1F643214643214783C72
:100370001E1E140A052223252628292A2C2D2F305B
:1003800032333536383A3B3D3E4042434547494A91
:100390004C4E5051535557595A5C5E6062646668C2
:1003A000696B6D6F71737577797B7D7F81838587CD
:1003B000898A8C8E90929496989A9C9E9FA1A3A5D0
:1003C000A7A8AAACAEAFB1B3B4B6B8B9BBBCBEBFF8
:1003D000C1C2C3C5C6C7C9CACBCCCDCED0D1D2D27B
:1003E000D3D4D5D6D7D7D8D9D9DADADBDBDBDCDC86
:1003F000DCDCDCDDDDDDDDDCDCDCDCDCDBDBDBDA3E
:10040000DAD9D9D8D7D7D6D5D4D3D2D2D1D0CECDA8
:10041000CCCBCAC9C7C6C5C3C2C1BFBEBCBBB9B8B5
:10042000B6B4B3B1AFAEACAAA8A7A5A3A19F9E9C3A
:100430009A98969492908E8C8A89878583817F7D05
:100440007B79777573716F6D6B6968666462605EE6
:100450005C5A5957555351504E4C4A4947454342AF
:10046000403E3D3B3A3836353332302F2D2C2A2949
:100470002826252322FFAA7F554000000000000007
:10048000000000000001010203040506080A0C0F29
:100490001114181C2024292E33393F464C535B621B
:1004A0006A7179818A929AA2AAB2B9C1C8CFD5DC01
:1004B000E1E7EBF0F4F7FAFCFDFEFFFEFDFCFAF7D6
:1004C000F4F0EBE7E1DCD5CFC8C1B9B2AAA29A92A9
:1004D0008A8179716A625B534C463F39332E2924F5
:1004E000201C1814110F0C0A080605040302010150
:1004F00000000000000000000000000101010101F7
:1005000001010101020202020202020202030303CC
:10051000030303030304040404040404050505059C
:10052000050606060606070707070708080808095C
:100530000909090A0A0A0B0B0B0C0C0C0D0D0D0E08
:100540000E0E0F0F0F10101111111212131314149D
:10055000151516161717181819191A1A1B1B1C1D12
:100560001D1E1E1F2020212222232424252626276B
:100570002829292A2B2C2D2D2E2F3031323233349D
:1005800035363738393A3B3C3D3E3F4041424344A3
:1005900045464748494A4C4D4E4F50515354555685
:1005A00058595A5B5D5E5F616264656668696B6C31
:1005B0006D6F7072737577787A7B7D7E80828385AC
:1005C00087888A8C8E8F91939596989A9C9EA0A2EC
:1005D000A3A5A7A9ABADAFB1B3B5B7BABCBEC0C2F6
:1005E000C4C6C9CBCDCFD1D4D6D8DBDDDFE2E4E7BA
:1005F000E9EBEEF0F3F5F8FAFDFF16034B004200CD
:100600004400380058002D004D004B0049004900BF
:10061000000010034B0042004400660061006E00C1
:10062000730000000403090409023B00020100A05A
:10063000FA09040000010301010009211101000170
:100640002240000705810308000A09040100010394
:1006500000000009211101000122B60007058203F4
:1006600020000A120110010000000803A10500018A
:10067000000102000105010902A10185020901A191
:100680000005091901290815002501950875018142
:10069000020501093009311581257F950275088110
:1006A0000609381581257F950175088106050C0A14
:1006B00038021581257F950175088106C0C00501A6
:1006C0000980A101850319012AB700150126B70089
:1006D000950175108100C0050C0901A1018504195F
:1006E000012AA002150126A002950175108100C003
:1006F00005010906A1018505050719E029E715008F
:1007000025019508750181020507190029EF1500DB
:10071000250195F075018102050819012905950546
:1007200075019102950175039101C005010906A1AA
:1007300001050719E029E7150025019508750181D4
:10074000029501750881010507190029FF1500268A
:10075000FF00950675088100050819012905950512
:1007600075019102950175039101C00011241FBE0E
:10077000CFEFDAE0DEBFCDBF04B603FE27C0809125
:10078000E3039091E403A091E503B091E603873081
:10079000904BA740B04BD1F41092E3031092E403C6
:1007A0001092E5031092E60314BE84B7877F84BFDE
:1007B0000FB6F894A89580916000886180936000DE
:1007C000109260000FBEE0E0F8E3099511E0A0E0B0
:1007D000B1E0E6E9FFE502C005900D92AA3DB10740
:1007E000D9F723E0AAEDB1E001C01D92A33EB20704
:1007F000E1F70E94F4280C94C92F0C94000081E0CA
:10080000089581E008950C94010408950C94050462
:100810001F93CF93DF9300D000D01F92CDB7DEB7E8
:1008200049835A836B8330918E0289819A81311179
:1008300014C0662359F0222349F00E948C23182FFC
:10084000682F89819A810E94352303C00E9460230A
:10085000182F69817A81812F04C00E948C236981BD
:100860007A810F900F900F900F900F90DF91CF91A2
:100870001F910C94E204FC01262F4081518162817A
:10088000738184810C940804CF93DF93EC0160E0C2
:100890000E943B04BE01DF91CF910C9406040E949C
:1008A00045270E94C624811102C00E9476250E941D
:1008B000D0040E947D160C9405070C94010708953E
:1008C0000E94411E0E945F042FEF84E39CE02150B0
:1008D00080409040E1F700C000000C941A270F936D
:1008E0001F93CF93DF93EC0161E00E943B048C01E6
:1008F000BE010E9403048823A9F1BE01C8010E9421
:100900006015882379F1BE01C8010E943117882340
:1009100049F1BE01C8010E948317882319F1BE0165
:10092000C8010E94AE188823E9F0BE01C8010E94E8
:10093000E8138823B9F08A81882369F001158CE5D2
:10094000180731F00F3D1C4531F40E9476250AC08E
:100950000E94600407C0CE01DF91CF911F910F91DB
:100960000C94FF0380E0DF91CF911F910F910895C8
:1009700008950C94B80481E00895CF93C82F0E9485
:10098000BB04882359F0C095C1FF02C0769A01C00C
:100990007698C2FF02C02A9A01C02A98CF91089582
:1009A0006E9A769A229A2A9A0895CF93C82F0E9417
:1009B000B9048C2F0E94BD04CF91089580E090E08F
:1009C000089508952CE6829FC0011124FC0129E0BE
:1009D000729FE00DF11D1124E60FF11DEE0FFF1FB8
:1009E000E055FE4F859194910895880F991FFC0161
:1009F000E05AFC4F859194910895CF93DF930E9424
:100A0000E2040E941506EC018115904508F041C0F2
:100A1000C11580E4D80708F0D1C0C83ED10510F553
:100A2000C03ED10508F0FDC0C83AD10578F4C53AFA
:100A3000D10508F0A2C0C130D10509F4F2C008F414
:100A4000EEC0C430D10508F0ECC0E9C0CF3BD10501
:100A500008F49BC0C03CD10508F4E1C0CE01805C25
:100A600091099EC0C11590E2D90758F4C11521E043
:100A7000D20708F0D6C0CD3ED10508F4D0C0D0656D
:100A8000D0C0C11580E3D80708F08EC0CE019F709A
:100A900087C0C11595E5D90708F043C0C11524E505
:100AA000D20708F0A2C0C11582E5D80708F5C11524
:100AB00091E5D90708F085C0CE0174E09695879539
:100AC0007A95E1F783709C2F937021E030E002C0AB
:100AD000220F331F9A95E2F73C68382BCF70C695EA
:100AE000C69580E2C89FE0011124C22BD32B99C088
:100AF0009E01237033278C2F86958695C115D3458B
:100B000008F064C0C1E0D0E002C0CC0FDD1F2A9520
:100B1000E2F720E2829FC0011124C82BD92BDC68A8
:100B200080C0C11529E5D207A0F4C11588E5D80712
:100B300008F060C0C11596E5D90708F070C08C2F89
:100B40000E94A9068F71C82FD0E0DC2FCC27D0627D
:100B500068C0C1152AE5D20708F451C0CE019056ED
:100B60008115904208F05BC08D2F8F710E94A906FD
:100B7000DD27D0628F71D82B54C0C55AD0E0C55A3A
:100B8000DE4FC881D0E0D0644CC0C85AD0E0CC0F52
:100B9000DD1FC35DDE4F0990D881C02DD46441C0F4
:100BA0000E94F504EC013DC0CE019927D3FF03C09C
:100BB000EC01D86C36C0EC01D06C33C0DF70D06A69
:100BC00030C0DC2FCC27C16FD06A2BC0C1E0D0E091
:100BD00002C0CC0FDD1F2A95E2F720E2829FC00100
:100BE0001124C82BD92BDA681CC0DC2FCC27C46F8A
:100BF000D06A17C0DC2FCC27C06FD06A12C08C2FF0
:100C00008F700E94A90694E0D695C7959A95E1F752
:100C1000CF70D0E0DC2FCC27D069C82B02C0C0E059
:100C2000D0E0CE01DF91CF9108958238910569F12E
:100C3000B0F48133910509F46DC048F4893291050F
:100C400009F463C08A32910509F469C008958533B7
:100C5000910509F455C089339105B9F00895833E93
:100C6000910569F138F4803E9105B1F0823E91051D
:100C700009F10895863E9105A9F1873E9105B9F1E4
:100C8000843E910509F064C023C02091D40320FD67
:100C90004FC021FD4DC008958091D40380FD44C014
:100CA0008091D50380FF44C08091D40384FD42C06D
:100CB00083EE4DC08091D40382FF38C0F5CF809180
:100CC000D40382FD33C08091D50380FD31C0ECCFC9
:100CD0008091D50381FF32C08091D40384FD2AC066
:100CE00087EE35C08091D40383FF26C0F5CF809175
:100CF000D40383FD21C08091D50381FD1FC0ECCFBB
:100D00008091D40385FD1CC01DC08091D40385FD56
:100D100019C016C08091D40386FD16C017C08091FB
:100D2000D40386FD13C010C089E311C082EE0FC04A
:100D300080EE0DC080E00BC086EE09C084EE07C0D7
:100D400089E205C085E303C08AE201C081E390E047
:100D500008959091D40392FF0DC0282F2871283058
:100D600019F4877F846006C0282F2471243011F481
:100D70008B7F886093FF0DC0282F2871283119F4CC
:100D8000877E846106C0282F2471243111F48B7E64
:100D900088612091D50320FF0DC0382F387138307D
:100DA00019F4877F816006C0382F3171313011F41A
:100DB0008E7F886021FF0DC0282F2871283119F4FB
:100DC000877E816106C0282F2171213111F48E7E2A
:100DD000886194FD877E0895E82FF0E0EE0FFF1FF5
:100DE000EA58FC4F808191810895089580EA8A95A0
:100DF000F1F7089500C008950C94F60608950C9438
:100E0000FE060C94FF060C94FE060C940307F8945F
:100E1000E82FE295EF70F0E031A1282F2F7081E0EC
:100E200090E001C0880F2A95EAF7982F90959323B8
:100E300091A392A1892B82A378940895CF93DF93F5
:100E4000C7E6D1E089910E94070781E0C337D80740
:100E5000C9F7CEE5D1E089910E94070781E0C73646
:100E6000D807C9F7EEE5F3E0A6E7B3E086E793E03D
:100E7000119211921D921D928E179F07C9F78CE057
:100E80000E94D907DF91CF910C944F047F928F92EB
:100E90009F92AF92BF92CF92DF92EF92FF920F9309
:100EA0001F93CF93DF930EE513E087E6E82E81E0F2
:100EB000F82EC0E0D0E0712CAA24A394B12C4701F5
:100EC000F7018081F894E82FE295EF70F0E021A11E
:100ED0008F70A50102C0440F551F8A95E2F7CA0121
:100EE000922F982B91A392A18095892382A3789425
:100EF0000E94FA06EEE5F1E020E030E0C12CD12CB2
:100F00004191A42FA295AF70B0E090968C9190E0A3
:100F10004F7002C0959587954A95E2F780FD08C00D
:100F2000C501022E02C0880F991F0A94E2F702C081
:100F300080E090E0C82AD92A2F5F3F4F2930310541
:100F4000F9F65FEFE51AF50AF40180810E940707C0
:100F5000CB30D10511F00E94FC06F801808191810F
:100F6000C816D90621F0D182C08281E001C080E09C
:100F7000782A21960E5F1F4FCC30D10509F09FCF04
:100F8000272D4CE066E773E08EE593E00E94DA07D8
:100F90000E945D04872DDF91CF911F910F91FF90EB
:100FA000EF90DF90CF90BF90AF909F908F907F9009
:100FB00008950895FF920F931F93CF93DF93F82E18
:100FC000092F162FD72FC42F222349F081E08093B9
:100FD000DE010E94CD269093DD018093DC0180919B
:100FE000DE018823D9F08091DC019091DD010E941F
:100FF000E526069798F0EF2DF02FA12FBD2F80E06A
:1010000090E04C2F50E08417950734F421913191F2
:101010002D933D930196F7CF1092DE01DF91CF9192
:101020001F910F91FF900895833081F128F4813052
:1010300059F08230D1F00895853009F449C0B8F1F3
:10104000863009F456C0089580910B01262F30E0B8
:10105000280F311D2F3F310524F4680F60930B01D9
:1010600008958FEF80930B01089580910A01262F38
:1010700030E0280F311D2F3F310524F4680F6093B5
:101080000A0108958FEF80930A0108958091090164
:10109000262F30E0280F311D2F3F310524F4680F33
:1010A0006093090108958FEF80930901089580915D
:1010B0000801262F30E0280F311D2F3F310524F481
:1010C000680F6093080108958FEF809308010895D9
:1010D00080910501262F30E0280F311D2F3F31056B
:1010E00024F4680F6093050108958FEF8093050144
:1010F000089580910401262F30E0280F311D2F3FE5
:10110000310524F4680F6093040108958FEF8093F4
:1011100004010895833011F128F4813049F08230C0
:1011200091F00895853081F120F18630C1F1089564
:1011300080910B01681720F4861B80930B010895A2
:1011400010920B01089580910A01681720F4861B04
:1011500080930A01089510920A010895809109016F
:10116000681720F4861B80930901089510920901E5
:10117000089580910801681720F4861B8093080168
:10118000089510920801089580910501681720F4D0
:10119000861B8093050108951092050108958091A2
:1011A0000401681720F4861B8093040108951092AF
:1011B000040108950F931F9341E050E060E070E058
:1011C0008A019B0104C0000F111F221F331F8A9543
:1011D000D2F7C901B8010E9437221F910F910C94D8
:1011E000411E482F50E0FA013597EF33F10508F022
:1011F00060C0EA5AFF4F0C94C22E0E94762555C05B
:1012000080913A03817F8E7F80933A0381E08093BF
:10121000E00108950E94600448C080913A03982F2D
:101220009095917090FB80F980933A0391113DC0A5
:10123000897F877F10C080913A0381FB222720F9A4
:1012400091E0922790FB81F980933A03992369F109
:1012500080913A03816080933A0327C080913A03DA
:1012600082FB222720F991E0922790FB82F9ECCFB4
:1012700080913A0383FB222720F991E0922790FB8B
:1012800083F9E2CF0E94411E8091D40387FB22277D
:1012900020F991E0922790FB87F98093D40305C051
:1012A000895301C08D510E94DA0881E0089580E0E1
:1012B000FACF80E0089580E008950C945B098E5188
:1012C0008A3030F4E82FF0E0ED58FE4F8081089529
:1012D00080E00895CF93C82F8091E001813051F0D4
:1012E00018F0823099F17DC00E940D24823209F0FD
:1012F0007AC004C00E940D24823261F48C2F0E94B7
:101300005D09811104C08C2F0E94F1081DC081E08D
:1013100090E01AC08C2F0E945B09811114C0C43167
:1013200079F048F4CB3079F0C03109F060C082E048
:101330008093E00108C0C93219F0C83321F057C0CA
:101340001092E00154C081E0817053C0C93289F12C
:1013500018F5C43171F1B0F4C73009F046C08EE120
:1013600080930B0182E380930A018AE08093090154
:1013700084E18093080188E08093050188E28093EE
:10138000040133C082EE8C0F863078F58C2F0E94DA
:101390005F098093DF0129C0CE34E9F020F4CB341B
:1013A00021F56AE013C0C13579F0C235F1F461E08E
:1013B0000DC08091DF01882319F01092DF0115C064
:1013C00081E08093E00115C061E006C08091DF01FB
:1013D0000E9414080AC06AE08091DF010E948A0816
:1013E00004C01092E00180E004C081E002C080E00F
:1013F000ABCFCF9108958091E70180FF0BC0609142
:10140000090185E0689FB001112475956795759570
:1014100067952BC081FF09C06091090185E0689F35
:10142000B00111247595679520C082FF07C06091B7
:10143000090185E0689FB001112417C09091E60171
:101440009923D1F060910801961788F7209109013E
:1014500085E0289F90011124929FA001939F500D39
:10146000112470E0CA010E948C2E6038710540F48E
:101470006115710519F406C065E070E0862F0895C6
:101480008FE7089581E008958091E70180FF08C00B
:101490006091050170E0759567957595679521C018
:1014A00081FF06C06091050170E07595679519C0D0
:1014B00082FF04C06091050170E010C09091E501C9
:1014C000992399F0609104019617A0F78091050186
:1014D000899FC001112470E00E948C2E6038710534
:1014E00040F46115710519F406C061E070E0862FC3
:1014F00008958FE7089581E008958D3E21F40E94BC
:10150000FB09819504C08E3E29F40E94FB0980935B
:10151000EB0108958F3E21F40E94FB09819504C0E0
:10152000803F29F40E94FB098093EA010895893FD6
:1015300019F40E94440A05C08A3F31F40E94440A0B
:1015400081958093EC0108958B3F21F40E94440A19
:10155000819504C08C3F29F40E94440A8093ED01D8
:1015600008959FE0980F983078F421E030E0A901C9
:1015700002C0440F551F9A95E2F7CA019091E90104
:10158000892B8093E90108958D3F21F48091E70133
:1015900081600BC08E3F21F48091E701826005C01D
:1015A0008F3F29F48091E70184608093E7010895DB
:1015B0008D3E39F49091EB0197FF35C01092EB010D
:1015C00059C08E3E29F49091EB011916BCF32BC043
:1015D0009091EA018F3E29F497FF25C01092EA010D
:1015E00049C0803F19F41916CCF31DC09091EC014D
:1015F000893F29F41916BCF41092EC013BC08A3FD4
:1016000019F497FF10C0F8CF8B3F39F49091ED019A
:1016100097FF09C01092ED012DC08C3F21F49091ED
:10162000ED011916BCF39FE0980F983080F421E08B
:1016300030E0A90102C0440F551F9A95E2F7CA0194
:1016400080959091E90189238093E90113C08D3F32
:1016500021F48091E7018E7F0BC08E3F21F48091B1
:10166000E7018D7F05C08F3F29F48091E7018B7FD3
:101670008093E7018091EA01811106C08091EB011E
:10168000811102C01092E6018091EC01811106C027
:101690008091ED01811102C01092E50108950E9430
:1016A000CD262091EA01211104C02091EB012223D3
:1016B00021F09093E4018093E3012091EC0121114A
:1016C00004C02091ED01222321F09093E201809348
:1016D000E10188EE91E00C940A19EF92FF920F93CA
:1016E0001F93CF93DF9300D000D000D0CDB7DEB7EB
:1016F00086E0E8EEF1E0DE01119601900D928A9508
:10170000E1F7E090EA01F090EB010091EC0110911B
:10171000ED011092EA011092EB011092EC0110928F
:10172000ED01E11003C0FF2009F45DC08091E301E9
:101730009091E4010E94E526AC019091E601992385
:1017400039F020910A0130E02417350758F04BC0DA
:1017500020910B018AE0289F90011124241735075E
:1017600018F041C09F3F19F09F5F9093E601EE2073
:1017700061F00E94FB091E1414F09FEF01C091E07C
:10178000989F902D11249093EA01FF2061F00E9410
:10179000FB091F1414F09FEF01C091E0989F902D5A
:1017A00011249093EB013091EA013323E1F0209171
:1017B000EB012223C1F045EB3403C001112499232E
:1017C00019F09093EA0103C081E08093EA0135EBC0
:1017D0002303C0011124992319F09093EB0103C056
:1017E00081E08093EB01011103C0112309F45DC076
:1017F0008091E1019091E2010E94E526AC01909177
:10180000E501992339F02091060130E024173507CE
:1018100058F04BC0209107018AE0289F90011124C5
:101820002417350718F041C09F3F19F09F5F909330
:10183000E501002361F00E94440A101614F09FEFA6
:1018400001C091E0989F902D11249093EC011123F9
:1018500061F00E94440A111614F09FEF01C091E05C
:10186000989F902D11249093ED013091EC0133233A
:10187000E1F02091ED012223C1F045EB3403C001DA
:101880001124992319F09093EC0103C081E0809317
:10189000EC0135EB2303C0011124992319F0909337
:1018A000ED0103C081E08093ED018091EA01811197
:1018B0000BC08091EB01811107C08091EC01811177
:1018C00003C08091ED0181110E944F0BEB82FC82DD
:1018D0000D831E8386E0FE013196A8EEB1E00190F3
:1018E0000D928A95E1F726960FB6F894DEBF0FBEEB
:1018F000CDBFDF91CF911F910F91FF90EF90089591
:10190000E8EEF1E086E0DF011D928A95E9F710929A
:10191000E6011092E5011092E7010895EF92FF921F
:101920000F931F93CF93DF938B01682F11110AC080
:10193000442329F0E82FF0E0E650FB4F6491762F26
:10194000862F75C0212F30E0E82FF0E0442321F0EE
:10195000E650FB4FE491F0E046E0049FC001112403
:10196000CFEFD0E0BE010E94782E4BEA4603C001C3
:10197000479F900D1124800F911D800F911D982F6E
:10198000990F890FAE01421B530B4E9FD0014F9F01
:10199000B00D5E9FB00D11249B2F189FA001112444
:1019A000452F55278E01041B150B0E9FA0010F9F7D
:1019B000500D1E9F500D11247E01E81AF108E29E81
:1019C0008001E39E100DF29E100D1124212F33276C
:1019D000C21BD30BCE9F9001CF9F300DDE9F300DE9
:1019E000112462307105A9F048F46115710569F0A0
:1019F00061307105C9F48B2F752F0DC064307105EE
:101A000081F058F06630710579F47E2F8B2F932F7B
:101A10000DC0832F7B2F9E2F09C08E2F7B2F952FDC
:101A200005C08E2F732F02C07E2F852F692FDF9167
:101A3000CF911F910F91FF90EF90089541E00E9488
:101A40008E0C089508950E941E0D0895CF93DF9384
:101A5000762FE901682F842F0E94230D79836883F4
:101A60008A83DF91CF910895493C08F048EC0C94AB
:101A7000260D80918E03282F269530E02115310503
:101A800019F48170826005C02B32310524F0817019
:101A9000846580938E0380919103893C18F088ECD3
:101AA00080939103089588E090E00C946A2FCF9280
:101AB000DF92EF92FF926B017C010E94390DB7011A
:101AC000A60188E090E0FF90EF90DF90CF900C941B
:101AD000882FEEE8F3E083E0808311828FEF82832A
:101AE00088EC8383148260817181828193810C945C
:101AF000570D80918E0380FF02C08695089580E087
:101B0000089590919203933018F49F5F90939203FD
:101B1000882351F060918E0370918F038091900320
:101B2000909191030C94570D089581E00C94810DD0
:101B300090919203992319F09150909392038823E6
:101B400051F060918E0370918F038091900390917A
:101B500091030C94570D089581E00C94980D70E05A
:101B60000C9493166091100180918E0380FF0AC03F
:101B700080910F0123E0829FC00111248D569C4F5C
:101B80000C94AF0D8091110190911201891780F78B
:101B9000E82FF0E09F01220F331FE20FF31FED56F5
:101BA000FC4F1182108212828F5FF0CF90918E03D2
:101BB00090FF16C09091110120911201921770F4BC
:101BC000E92FF0E0DF01AA0FBB1FEA0FFB1FED5664
:101BD000FC4F8183608342839F5FF0CF0C94B20DF2
:101BE0000895CF93DF9300D01F92CDB7DEB79091C9
:101BF0008E0390FF0AC09E012F5F3F4F0E94340D5D
:101C00004B8169818A810E94D60D0F900F900F90B1
:101C1000DF91CF910895CF93DF93EC01EC81F0E059
:101C2000EB58FC4F4491EEE8F3E0628181810E9421
:101C3000F10D8C818F5F8C83DF91CF910895CF93CD
:101C4000DF93EC01EEE8F3E0438162818C810E9436
:101C5000F10D8C818F5F8C83DF91CF9108950F936D
:101C60001F93CF93DF9300D01F92CDB7DEB78C01C7
:101C70008091EE0181110AC09E012F5F3F4F48EC19
:101C80006FEF0E94340D8A818093EE01F801848108
:101C9000813051F028F0823061F44091EE010AC0A9
:101CA0008091EE0140E007C06091EE0140E080E0ED
:101CB00003C040E080E060E00E94D60DF80184811E
:101CC00090E0019663E070E00E948C2E84830F9078
:101CD0000F900F90DF91CF911F910F910895AF92C8
:101CE000BF92CF92DF92EF92FF920F931F93CF9309
:101CF000DF9300D01F92CDB7DEB7182FF62E042F3A
:101D0000E22E90918E0390FF6DC0E92FE695AE2FE5
:101D1000B0E0A358BE4F8C9180935E029E7F9230BC
:101D200061F49E012F5F3F4F812F0E94340D4B8144
:101D300069818A810E94D60D43C0823019F40091D6
:101D400091033EC0863019F410918F0339C0893059
:101D5000D9F38931A9F5E9518E2F8170D82EE695F6
:101D6000F0E0EB58FB4FA590B490C12CBB246091E0
:101D70001301C61618F52C2D30E0A29EC001A39EBB
:101D8000900DB29E900D112470E00E94782E812F4C
:101D9000D11002C0860F01C0861B90911101290F3E
:101DA000311DA901440F551F240F351F2D563C4FDF
:101DB000402F6F2D0E94340DC394D9CF0E94B20DD5
:101DC00010938F03F092900300939103EE2051F053
:101DD00060918E0370918F03809190039091910395
:101DE0000E94570D0F900F900F90DF91CF911F9190
:101DF0000F91FF90EF90DF90CF90BF90AF9008953C
:101E0000EEE8F3E09181282F4381628188E0890F19
:101E10000C946F0E81E00C94000FEEE8F3E09181DA
:101E2000282F4381628188EF890F0C946F0E81E027
:101E30000C940D0FEEE8F3E0628128E0620F08F4E5
:101E40006FEF282F438181810C946F0E81E00C94F9
:101E50001A0FEEE8F3E0628128E0621B08F460E00C
:101E6000282F438181810C946F0E81E00C94290FFF
:101E7000EEE8F3E0438128E0420F08F44FEF282F0B
:101E8000628181810C946F0E81E00C94380FEEE832
:101E9000F3E0438128E0421B08F440E0282F6281F0
:101EA00081810C946F0E81E00C94470F20E00C941C
:101EB0006F0EFF920F931F93CF93DF93EC01F12CE2
:101EC0000FEF10E060911301F616F0F4809111010C
:101ED0002F2D30E0280F311DC901880F991F280FC1
:101EE000391F2D563C4F70E0C8010E948C2E962F52
:101EF0008C814091910360919003F99E800D112493
:101F00000E94340DF394DECF0E94B20D9A818C8131
:101F100090FF02C08F5F01C081508C83DF91CF9111
:101F20001F910F91FF900895AF92BF92CF92DF92D1
:101F3000EF92FF920F931F93CF93DF93FC01828167
:101F400080FF02C00FEF01C001E010E044E1A42EC9
:101F500080911301181708F043C080911101C12E20
:101F6000D12CE601C80FD11DCE01880F991FC80FD3
:101F7000D91FCD56DC4F198218821A8234E0E32E25
:101F8000F12CB12C8091F0018B0D85312CF06A2D54
:101F90000E946A2E892F05C087FF03C0909113010C
:101FA000890F082E000C990BC816D90691F4809160
:101FB00091038E9DA0018F9D500D1124559547953D
:101FC000559547959E016091900380918F030E94E3
:101FD000340DB00EF1E0EF1AF108A1F61F5FB8CF93
:101FE0000E94B20D8091F001013031F4811102C0E4
:101FF00080911301815007C090E001966091130118
:1020000070E00E948C2E8093F001DF91CF911F91A0
:102010000F91FF90EF90DF90CF90BF90AF90089519
:10202000CF938091110190911201891770F4E82FDC
:10203000F0E09F01220F331FE20FF31FED56FC4F1C
:102040001182108212828F5FF0CFC0E06091130185
:10205000C617C0F5EC2FF0E070E0CF010E948C2E87
:1020600020911101820F2091EF01022E000C330B01
:1020700090E0E217F307CCF020910E01022E000C45
:10208000330B2E173F078CF09C01220F331F820F5A
:10209000931F9C012D563C4F4091910360919003FA
:1020A00080918F030E94340D0BC0FC01EE0FFF1FC7
:1020B0008E0F9F1FFC01ED56FC4F11821082128281
:1020C000CF5FC4CF0E94B20D20910D018091EF012E
:1020D000820F8093EF0190910E01920F90930E0169
:1020E00019165CF4082E000C990B4091130150E076
:1020F00041505109841795071CF0219520930D013B
:10210000CF9108958F929F92AF92BF92CF92DF921C
:10211000EF92FF920F931F93CF93DF938C01FC01FB
:102120004481C42FD0E09E01DE010E94D02E9B018D
:10213000AC010E94E62E6B017C01E0E2F0E0EC1BBA
:10214000FD0BA5E5B0E09B01AC010E94E62E4B0122
:102150005C019F01DF010E94C82E9B01AC010E941F
:10216000F12E9B01AC012C0D3D1D4E1D5F1DC501C7
:10217000B4010E94A02EC22FD22F2A3228F4F3E0FD
:102180002F9F900111240DC025E530E02C1B310953
:10219000C901880F991F280F391F37FF02C02F5F11
:1021A0003F4F35952795C22FC095F12C85E5E82E38
:1021B000ED1A80911301F816C8F4F1FC02C08E2DBF
:1021C00001C08D2F909111012F2D30E0290F311D6D
:1021D000A901440F551F240F351F2D563C4F4C2F7E
:1021E000609190030E94340DF394E3CF0E94B20DEE
:1021F000F8018481811102C091E003C0803219F49A
:102200009FEF90930C0190910C01890FF80184834A
:10221000DF91CF911F910F91FF90EF90DF90CF90C2
:10222000BF90AF909F908F9008950F931F93CF937F
:10223000DF93EC0100E010E080911301282F30E0E3
:102240000217130724F5909111019801290F311DF0
:10225000A901440F551F240F351F2D563C4F86955D
:1022600090E04C81081719071CF4442331F002C098
:10227000411103C04091910301C040E0609190037F
:1022800080918F030E94340D0F5F1F4FD5CF0E94A6
:10229000B20D8C8190E00196817099278C83DF913B
:1022A000CF911F910F9108957F928F929F92AF923D
:1022B000BF92CF92DF92EF92FF920F931F93CF9333
:1022C000DF93FC018280748081E08483E5E7F3E0A2
:1022D0009490E4EFF3E0E491A12CF5E0BF2ECC2440
:1022E000CA94D12CE9190E2F10E080911301A81681
:1022F00008F0A2C0EA2CF12C22E0281568F0BE9C60
:10230000F001BF9CF00D1124EF50FE4F80918F0320
:10231000808380919003818371100AC0BE9CF0017C
:10232000BF9CF00D1124EF50FE4F138212826AC041
:10233000BE9CE001BF9CD00D1124CF50DE4F8B819D
:102340008823F9F081508B832FEF829FC0011124E5
:102350006C8170E00E94782EFB01FF27EB58FC4F48
:102360008491E82FE9192FEFE29FC0011124B801F1
:102370000E94782E80919103689FB00111247A8386
:1023800041C00E94452F209191032695215830E0AD
:10239000A901440F551F322F2227240F351F232F49
:1023A00033278217930774F582E0881588F40E941A
:1023B000452FB6010E948C2E88830E94452F2091C4
:1023C00090032695622F70E00E948C2E280F29839F
:1023D000BE9CF001BF9CF00D1124EF50FE4F128205
:1023E00080919103843120F0893C18F088EC01C081
:1023F00084E1BE9CF001BF9CF00D1124EF50FE4F14
:1024000084838383809111019701280F311DC901B5
:10241000880F991F280F391F2D563C4FBE9CF00185
:10242000BF9CF00D1124EF50FE4F428161818081ED
:102430000E94340DA39459CFDF91CF911F910F913A
:10244000FF90EF90DF90CF90BF90AF909F908F90D4
:102450007F900C94B20DEEE8F3E080818E7F808354
:1024600060817181828193810E94570D10925F0279
:102470002FEF80E792E0215080409040E1F700C0CC
:1024800000000C94B20DEEE8F3E080818E7F808333
:1024900010925F022FEF80E792E021508040904041
:1024A000E1F700C000000C94B20D10925F02809121
:1024B0005C0281110AC081E080935C0280918E03EE
:1024C000817080935B020C944312089560918E0397
:1024D000669570E04BE050E084E191E00E94552F5A
:1024E000892B19F481E080935F020E94CD2690939E
:1024F000560280935502089590918E0390FF35C047
:102500009170811102C0926006C08B3210F0946508
:1025100002C0880F982B90938E03662351F0609130
:102520008E0370918F0380919003909191030E948C
:10253000570D60918E03669570E04BE050E084E1AA
:1025400091E00E94552F892B19F010925F0202C072
:102550000E94661281E0809358024091910360913D
:10256000900380918F030C94560F0895682F9091DB
:102570008E03969581E0890F8B3208F081E00C94F0
:102580007C1281E00C94B612682F90918E03969580
:102590008FEF890F09F48AE20C947C1281E00C948D
:1025A000C41261E00C947C12EEE8F3E0808181605B
:1025B000808386950C94D11280918E0380FD0C94BB
:1025C0002B120C94D41260E00C947C1280915D026A
:1025D00081112EC00E94C624811104C00E9476255C
:1025E0000E94690D0E94530D60938E0370938F03B8
:1025F00080939003909391036E7F61F40E94690D24
:102600000E94530D60938E0370938F038093900309
:10261000909391030E94390D10925F0280918E0376
:1026200080FF03C086950E94E31281E080935D02E3
:102630000895EEE8F3E080818160808386950C94B4
:10264000E31210925C0280915B0281110E941913C7
:102650000C9466120F931F93CF93DF9380915F02C8
:10266000882309F495C080915E02E0918E03E6957F
:10267000E81BE0935702823049F4F0E0EF58FC4F3A
:10268000E491CE2FD0E00BE01EE059C0863049F433
:10269000F0E0E259FC4FE491CE2FD0E00FE11EE0D4
:1026A0004EC0893051F4E695F0E0E559FC4FE491D5
:1026B000CE2FD0E009E51FE042C08F3051F4E695FF
:1026C000F0E0E859FC4FE491CE2FD0E004E91FE0A0
:1026D00036C0853149F4F0E0EB59FC4FE491CE2F40
:1026E000D0E000E110E12BC08831D9F0833239F419
:1026F000E3E6F3E0C591D4910FE21EE020C08432FE
:10270000A9F08532C1F48E2F63E00E945E2EE92F7E
:10271000F0E0E05AFC4FE491CE2FD0E004E511E167
:102720000EC0C8E2D0E002E810E109C0C4EFD1E079
:1027300005E111E104C0C0EDD7E002E21DE08091A7
:102740005802882361F0109258020E94CD2690937F
:1027500056028093550210925A02109259020E941A
:10276000CD26E0915502F09156028E1B9F0B8F3FB4
:102770009F4770F4EC0FFD1FF0935602E093550253
:1027800085E592E0F801DF91CF911F910F910994B7
:10279000DF91CF911F910F910895882311F0FA01D5
:1027A00001C0FB010994CF93DF93C82FD62F0E945D
:1027B000790D8C1740F00E94790D8D1720F4DF9170
:1027C000CF910C94C1128C2FDF91CF910C94D11228
:1027D0000F931F93CF93FB01C281CC2309F463C0F5
:1027E0008C010E940D248272F801E35CFC45E43107
:1027F000F10508F059C0EB56FF4F0C94C22E0E9411
:10280000DC1206C04EEC52E161EC72E10E94CD1385
:10281000C0E04AC041EC52E16EEC72E1F7CF47E113
:102820005FE06AE07FE0F2CF4AE05FE067E17FE0EF
:10283000EDCF45E35FE066E27FE0E8CF46E25FE0B0
:1028400065E37FE0E3CF43E55FE064E47FE0DECF74
:1028500044E45FE063E57FE0D9CF4CEA5DE065E901
:102860007DE0D4CF45E95DE06CEA7DE0CFCF81E04B
:1028700017C065E082E010C068E086E00DC06EE041
:1028800089E00AC064E18FE007C067E185E104C028
:1028900088E106C062E289E10E94D313B9CF83E2E6
:1028A0000E94D112B5CFC1E08C2FCF911F910F9113
:1028B00008958091CF038695869586950895809199
:1028C000CF0381FD07C082608093CF030E94FB2469
:1028D0000C94F91508958091CF0381FF07C08D7F77
:1028E0008093CF030E94FB240C94051608958091D9
:1028F000CF0381FD0C946B140C945F148091CF0373
:1029000086958170089580911F0108950E94C624C4
:10291000811102C00E9476250E94F7248093CF0384
:10292000282F26952695269530E02430310524F071
:10293000877088618093CF038091CF0380FF04C0AC
:1029400086958695869501C080E00C94C8152091E7
:10295000CF03822F869586958695482F50E0433089
:10296000510554F48F5F982F990F990F990F822F6B
:102970008770892B8093CF038091CF0381608093F0
:10298000CF030E94FB248091CF0386958695869580
:102990000C94C8158091CF03982F9695969596958F
:1029A000A1F0915E990F990F990F8770892B8093F1
:1029B000CF03887F91E009F490E08091CF0390FBF2
:1029C00080F98093CF030E94FB248091CF038695EA
:1029D000869586950C94C8158091CF0380FD13C011
:1029E00081608093CF03813019F489E08093CF0315
:1029F0008091CF030E94FB248091CF03869586951A
:102A000086950C94C81508958091CF0380FF08C067
:102A10008E7F8093CF030E94FB2480E00C94C81526
:102A200008958091CF0380FD0C9404150C94EC1450
:102A30009091CF03892F8695869586958F5F8F71AC
:102A40009770843038F4880F880F880F892B809313
:102A5000CF0302C09093CF038091CF03887F91E092
:102A600009F490E08091CF0390FB80F98093CF032D
:102A70000E94FB248091CF038695869586950C94C1
:102A8000C815843008F083E09091CF039770282F09
:102A9000220F220F220F922B9093CF03987F21E0D9
:102AA00009F420E09091CF0320FB90F99093CF039D
:102AB0000C94C8150E9441158091CF030C94FB24FF
:102AC000FC01DB0112968C918823F9F0EC5BFC454C
:102AD000E730F105D8F4E755FF4F0C94C22E83E0A0
:102AE00001C080E00E945A1580E008950E94CA1437
:102AF000FBCF0E94A714F8CF0E941115F5CF0E94BA
:102B00001815F2CF0E947714EFCF81E00895279A2D
:102B10002F9808952F980895CF92DF92EF92FF9209
:102B20008C3724E1920728F469E070E00E94782E47
:102B300029C0A0E0B0E08A50974DAF4FBF4F662745
:102B4000782F892F9A2F25EF38E241E050E00E943C
:102B5000A02E69017A01CA01B9010E944E2E9B0183
:102B6000AC01C701B6010E944E2EBB27A92F982F9A
:102B7000872F009721E0A207B10511F0BC0102C028
:102B80006FEF7FEFCB01FF90EF90DF90CF90089534
:102B9000CF93C82F843050F4811109C080918000F8
:102BA000877F809380000E948A1506C0C3E08091D1
:102BB00080008860809380002C2F30E0AFEFBFEF63
:102BC0000E94D02E23E030E040E050E00E94A02E92
:102BD000B42FA32F922F8827892F9A2FAB2FBB2793
:102BE0000E948C1590938D0080938C00CF91089556
:102BF0000895109261021092600210926202EFE654
:102C0000F0E08081816080830895EFE6F0E08081CC
:102C10008E7F80830E9459140C94C8151F920F92C6
:102C20000FB60F9211242F933F934F935F936F939F
:102C30007F938F939F93AF93BF93CF93EF93FF9324
:102C40000E94831440916002509161024F5F5F4F78
:102C500094EF899F90011124CA01B9010E94782E36
:102C60009093610280936002B901660F672F661F1F
:102C7000770B71950E94782E6F7780916202823077
:102C800019F4603451F404C0813039F46F3729F4F9
:102C900080916F008E7F80936F00E62FF0E0E65802
:102CA000FB4FC4910E945914282F41E051E0C49F6A
:102CB000C001C59F900D112463E070E00E94782E42
:102CC000269FC001279F900D11240E948C15909380
:102CD0008D0080938C00FF91EF91CF91BF91AF91C8
:102CE0009F918F917F916F915F914F913F912F9124
:102CF0000F900FBE0F901F9018950E9487158AE0C5
:102D00008093800089E1809381008FEF9FEF909303
:102D10008700809386000E9486140E947E14811191
:102D20000C94F9150895239A25B1277F35B13860A1
:102D30004FB7F894FC01CB01880F991F680F791FDA
:102D40006E0F7F1FE617F70789F0819198E035B97C
:102D5000000000C087FF25B9880F000000C000C038
:102D600000C025B900C09A9591F7ECCF4FBF8FE511
:102D700094E00197F1F700C0000008950F931F93AE
:102D8000CF93DF93C42FD22FFC0182818823C9F017
:102D9000409365020E94CD26909364028093630263
:102DA00080E28C0F883008F057C0C77081E001C006
:102DB000880FCA95EAF7DF91CF911F910F910C947C
:102DC000B41B80916502481330C0809163029091DA
:102DD00064020E94E526883C910538F510E21D0F3B
:102DE000CD17B9F080E28C0F883040F4C77081E0D5
:102DF00001C0880FCA95EAF70E94BB1B183028F55E
:102E000081E09D2F977001C0880F9A95EAF70E9484
:102E1000B41B802F0E94AB1B1830F0F4D77081E0F8
:102E200001C0880FDA95EAF70AC080E28C0F88307B
:102E300098F4C77081E001C0880FCA95EAF7DF9166
:102E4000CF911F910F910C94BB1B802FDF91CF91DD
:102E50001F910F910C94AB1BDF91CF911F910F919C
:102E600008950F939C01CB01243F4CE5340731F1C9
:102E700088F4293DFCE53F07D9F02A3D4CE53407AD
:102E800079F1283D3C45A9F506E221EE41EE68EDD9
:102E90007CE52BC0263FFCE53F07E1F0A8F0273F8B
:102EA0003C4539F507E225EE46EE67EF7CE51DC0AF
:102EB00007E225EE45EE69ED7CE517C006E221EE5E
:102EC00040EE64EF7CE511C007E225EE44EE65EFCD
:102ED0007CE50BC006E221EE42EE66EF7CE505C024
:102EE00008E221E045EE6AED7CE50E94BE1680E036
:102EF00008C0FC018281882319F01092650201C08C
:102F000081E00F910895CF93DF93EC01FB01828163
:102F1000882309F41FC1C230FCE5DF0708F41BC198
:102F2000C6319CE5D90738F09E012B5F3C4529301E
:102F3000310508F010C10E94D9249093D5038093E5
:102F4000D403C031ECE5DE0709F4C3C008F041C08A
:102F5000C8308CE5D80709F49AC0F0F4C430ECE529
:102F6000DE0709F487C068F4C2308CE5D80709F49D
:102F700077C0C330DC4509F0E3C08091D4038260A0
:102F800076C0C630ECE5DE0709F46EC008F07BC001
:102F90008091D40388606BC0CC308CE5D80709F4ED
:102FA00085C068F4CA30ECE5DE0709F474C008F0A7
:102FB00079C00E94411E8091D403806858C0CE30F1
:102FC0008CE5D80709F476C008F07FC08091D4035F
:102FD0008BC0CC3FECE5DE0709F44FC018F5C331D8
:102FE0008CE5D80709F47DC078F4C131ECE5DE0743
:102FF00009F473C0C231DC4509F0A2C00E94411E31
:103000008091D4038F7733C0C5318CE5D80709F49C
:1030100072C008F486C0CB3FDC4509F091C08091B6
:10302000D5033EC0C115FDE5DF0709F45FC058F4C4
:10303000CE3F9CE5D90709F444C008F43FC0809115
:10304000D50382602DC0C230FDE5DF0709F475C0ED
:1030500008F45DC0C330DD4509F072C080E06EC089
:103060008091D403816003C08091D40380618093F8
:10307000D40366C08091D40311C08091D5038260CF
:103080008093D5035DC08091D4038062F0CF80919E
:10309000D4038064ECCF8091D40388608460E7CF50
:1030A0008160EECF8091D4038E7FE1CF8091D403F5
:1030B0008D7FDDCF8091D403877FD9CF8091D503D9
:1030C00018C08091D5038D7FDBCF8091D4038F7E94
:1030D000CECF8091D4038F7DCACF8091D4038F7BD4
:1030E000C6CF8091D403877F8B7FC1CF8091D503DA
:1030F0008D7F8E7FC5CF8091D40382FB222720F95C
:1031000091E0922790FB82F990FB83F9B0CF8091F8
:10311000D503982F909591708E7F892B90FB81F924
:10312000AFCF0E94411E8091D40387FB222720F954
:1031300091E0922790FB87F99ACF81E00E94782551
:103140008091D4039091D5030E94EA240E94411EED
:1031500080E001C081E0DF91CF910895CF93DF93AC
:1031600086319C4541F5EB010E940D24982F8A8100
:103170002091200130912101882379F09A7A81E011
:1031800009F480E080936602911102C069E201C0F7
:1031900065E3C9010E9413260AC08091660281116D
:1031A00002C069E201C065E3C9010E941E260E94B7
:1031B0005B2480E001C081E0DF91CF91089590937E
:1031C0006C0280936B020895E0916B02F0916C02A7
:1031D000309721F00190F081E02D099480E008956E
:1031E000E0916B02F0916C02309799F020912C01E4
:1031F000222359F02091D40327FF07C0DC012C9132
:1032000011962C93119725E02C930280F381E02DE9
:1032100009940895E0916B02F0916C02309739F0B7
:1032200022E0DC012C930480F581E02D09940895BF
:103230002091690230916A022817390771F0909342
:103240006A0280936902E0916B02F0916C02309700
:1032500021F00680F781E02D0994089520916702FE
:10326000309168022817390771F0909368028093B3
:103270006702E0916B02F0916C02309721F00084BC
:10328000F185E02D099408950E94D92660938A0261
:1032900070938B0280938C0290938D0260938602D0
:1032A000709387028093880290938902089585B76E
:1032B000806885BF85B7806885BF089581E00895DF
:1032C0000C945E1908950C9462190C9462190C9474
:1032D00065190C9462190C9469190C9462190E9476
:1032E00057198EEB94E20E943E270E946D190C94B0
:1032F0006B190E94C4260E941E070E9459270E9433
:1033000086140E94E6120C9467196F927F928F9236
:103310009F92AF92BF92CF92DF92EF92FF920F9364
:103320001F93CF93DF93CDB7DEB72A970FB6F894EC
:10333000DEBF0FBECDBF0E9463190E9462190E94BA
:10334000460781110E9444193EE6832E32E0932EF7
:1033500000E010E0C02E802F0E94EC065C01F4011A
:10336000619071904F016826792661147104B1F45F
:103370000F5F1F4F0C30110569F78FEF89838A8328
:103380001B820E94CD268160782F9D838C8349818A
:103390005A816B818D810E94431A3AC080913A0311
:1033A00081FD0E94F506D12CEE24E394F12CC3019B
:1033B0008E219F21892B29F10E9460198823A9F071
:1033C000DE82CF82AE20BF2081E0AB2809F480E00E
:1033D00088870E94CD268160782F9A8789874E81C1
:1033E0005F8168858A850E94431A000F111FF801CA
:1033F000E259FD4F80819181E826F926F182E08231
:1034000007C0D394EE0CFF1CF9E0DF12D0CFB0CF91
:103410000E942A130E94F8150E946D0B0E94E41866
:1034200090916D028917D1F00E94E41880936D028B
:103430002A960FB6F894DEBF0FBECDBFDF91CF91B5
:103440001F910F91FF90EF90DF90CF90BF90AF90C2
:103450009F908F907F906F900C94D5042A960FB612
:10346000F894DEBF0FBECDBFDF91CF911F910F91BA
:10347000FF90EF90DF90CF90BF90AF909F908F9094
:103480007F906F900895DF92EF92FF920F931F93BA
:10349000CF93DF93CDB7DEB72B970FB6F894DEBF8F
:1034A0000FBECDBFF42E052F162FE72ED82E61119B
:1034B0000E942D24FE01319686E0DF011D928A953F
:1034C000E9F77E2D4F2D502F612F8D2D9E810E946B
:1034D000FA202B960FB6F894DEBF0FBECDBFDF915A
:1034E000CF911F910F91FF90EF90DF900895FC0115
:1034F000808191810E94CE230895CF93882309F47F
:10350000A9C0C82F8238C1F40E94E41881FDA2C06E
:1035100069E380912001909121010E9413260E946D
:103520005B242FEF81EE94E0215080409040E1F742
:1035300000C0000069E319C0833801F50E94E41857
:1035400080FD88C063E580912001909121010E9457
:1035500013260E945B242FEF81EE94E021508040DF
:103560009040E1F700C0000063E580912001909158
:1035700021010E941E26CF910C945B248438C1F453
:103580000E94E41882FD66C067E48091200190915A
:1035900021010E9413260E945B242FEF81EE94E00C
:1035A000215080409040E1F700C0000067E4DDCF8B
:1035B0008CEF8C0F813AF8F48C2F0E946A098111EC
:1035C00049C06C2F80912001909121010E94932588
:1035D000882349F06C2F80912001909121010E9455
:1035E0001E260E945B246C2F809120019091210166
:1035F0000E941326C0CF80E28C0F883048F4C77039
:1036000081E001C0880FCA95EAF70E941024B3CF69
:10361000EBE5EC0FE33040F4F0E0EA52FE4F80813E
:1036200090E0CF910C941819E8E5EC0FE73150F4D5
:10363000F0E0EE0FFF1FE855FE4F80819181CF91A2
:103640000C942E19CD3E30F08C2F0E947D0ACF9124
:103650000C944F0BCF910895882309F464C08238ED
:1036600079F40E94E41881FF5EC069E38091200133
:10367000909121010E9413260E945B2469E310C0EF
:103680008338B1F40E94E41880FF4DC063E5809157
:103690002001909121010E9413260E945B2463E582
:1036A00080912001909121010E941E260C945B24A0
:1036B000843879F40E94E41882FF35C067E4809171
:1036C0002001909121010E9413260E945B2467E44F
:1036D000E7CF9CEF980F913A10F4682FE1CF90E27A
:1036E000980F983050F4877091E001C0990F8A9537
:1036F000EAF7892F0E941624D9CF9BE5980F9330C3
:1037000020F480E090E00C94181998E5980F973118
:1037100020F480E090E00C942E198D3E20F00E9461
:10372000D80A0C944F0B08951F93CF93DF93182F53
:10373000EB010E947D1A209741F08FE99FE00197ED
:10374000F1F700C000002197F6CF812FDF91CF91D4
:103750001F910C942C1B893319F060E070E002C0BB
:1037600060E570E00C94941B882321F00E941024E3
:103770000C945B240895882321F00E9416240C9455
:103780005B240895CF92DF92EF92FF920F931F93E5
:10379000CF93DF937C01062FC72FFC01D2811581C7
:1037A00012951F700E940624882399F0DD2389F06A
:1037B0008C2F807F803421F080E2800F883048F0A9
:1037C00082E00E94A5240E94062491E0D82ED926EA
:1037D00001C0D12CCC2EC2948FE0C8228C2D90E059
:1037E000FC01E055FF4F0C94C22E8C2F807FCF70D0
:1037F000882311F0C295C07FDD2399F0CC2309F412
:103800008DC180E2800F883010F0011104C08C2F30
:103810000E94102403C08C2F0E9420240E945B244D
:103820007DC1802F0E942C1BCC2309F49CC180E217
:10383000800F883010F0011104C08C2F0E941624D4
:1038400003C08C2F0E9426240E945B248CC18C2FE5
:10385000807FCF70803211F0C295C07F002319F0B5
:103860000130C9F022C0DD2371F0112341F0113085
:1038700031F40E9440248C2B0E94482474C10E9481
:1038800040248C2B1DC0112319F0113009F46BC199
:103890000E94512425C0DD2321F0163008F063C1B9
:1038A0000EC0153008F05FC11BC0DD2361F011238D
:1038B00031F0F701858180FF31C18F7085838C2FB6
:1038C0000E94B41B50C1112359F0093309F037C1CC
:1038D000FFEF27EE83E0F15020408040E1F72DC15B
:1038E0008C2F0E94BB1B3FC18C2F869586958370C1
:1038F00019F0813061F037C1DD2321F0802F9C2F3A
:10390000937002C080E090E00E94181934C1DD235A
:1039100021F0802F9C2F937002C080E090E00E94E5
:103920002E1929C1802FDD2319F00E947D0A02C0C3
:103930000E94D80A0E944F0B1EC18C2F837009F081
:1039400045C0D11114C1402F429546954770440F90
:10395000440F602F6F70862F90E0A0E0B0E0042E3F
:1039600004C0880F991FAA1FBB1F0A94D2F704FF37
:1039700010C00FE010E020E030E004C0000F111F85
:10398000221F331F4A95D2F7009510952095309548
:1039900003C000E010E09801C695C695C370BC0155
:1039A000CD01602B712B822B932BC23049F058F440
:1039B000C13019F00E944B22DAC00E943922D7C0D0
:1039C0000E945D22D4C00E943722D1C0DD2319F0AD
:1039D0008C2F817001C08695882309F4C8C0402FC0
:1039E000429546954770440F440F602F6F70862FA5
:1039F00090E0A0E0B0E0042E04C0880F991FAA1F39
:103A0000BB1F0A94D2F704FF10C00FE010E020E0C3
:103A100030E004C0000F111F221F331F4A95D2F758
:103A2000009510952095309503C000E010E09801B6
:103A3000C695C695C370BC01CD01602B712B822B3E
:103A4000932BC23049F058F4C13019F00E94102372
:103A50008EC00E94FE228BC00E94222388C00E943A
:103A6000712285C0CF70DD2339F08C2F0E94972200
:103A7000802F0E94B41B7BC0802F0E94BB1B8C2F09
:103A80000E94B82274C0023F01F128F4003F41F0C7
:103A9000013FA1F03FC0033FF9F0043F39F13AC0C4
:103AA000DD2341F0153008F05EC08C2F8F710E942D
:103AB000DD2259C0163008F056C0F7CFDD2339F0AB
:103AC0008C2F8F710E9497224EC0DD23C9F38C2F5B
:103AD0008F710E94B82247C0DD2329F08C2F8F718F
:103AE0000E94822240C00E947D223DC0DD2349F019
:103AF000CF718C2F0E94972263E08C2F0E9490241C
:103B000032C081E00E94A524123068F182E00E9458
:103B1000A52429C0DD2331F0112391F2802F0E94CA
:103B20007D1A21C0112399F2093349F49FEFE7EE82
:103B3000F3E09150E040F040E1F700C00000802F3A
:103B40000E942C1B10C04C2F4F70602FC7010E9489
:103B5000DE040E94A8210FC04C2F4F70602FC701B8
:103B60000E94E10408C088EF8C0D843020F40E948C
:103B7000E4180E94D504DD20C9F00E94022480FDD3
:103B800015C0F70112820E94FC230E949722C701F0
:103B90000E94F71D0E94FC23DF91CF911F910F918E
:103BA000FF90EF90DF90CF900C94B822DF91CF91EF
:103BB0001F910F91FF90EF90DF90CF9008950F939A
:103BC0001F93CF93DF93EC01688179818A810E94F2
:103BD000D9238C010E9434230E942522B801CE01F2
:103BE0000E94C21BDF91CF911F910F910895CF9337
:103BF000DF93EC01988189812B813C81232B31F06B
:103C00008F3F31F481E09F3F19F403C081E001C090
:103C100080E080FD19C0CE010E946F0481110CC0AC
:103C20000E940624882381F08A81882369F082E03B
:103C3000DF91CF910C94A524CE010E94DF1DCE010F
:103C4000DF91CF910C944404DF91CF91089580E0EF
:103C500090E00E94181980E090E00E942E190E94C6
:103C60002D240E943D240E945B240E94800C0C9411
:103C70004F0B80912001909121010E9429260C94E4
:103C8000271E0E941D240C94391EE92FE295EF7027
:103C90004E2F50E0FA013297EE30F105B0F4E054C7
:103CA000FF4F0C94C22E803F91F018F4883E68F4C8
:103CB0000EC0843F51F40BC0883E48F0813F29F488
:103CC00006C093FB882780F9089580E0089581E07D
:103CD00008950E94CE230E94451E0895CF93DF933E
:103CE00000D000D01F92CDB7DEB70F900F900F908D
:103CF0000F900F90DF91CF910895CF93DF9300D075
:103D000000D000D0CDB7DEB726960FB6F894DEBF50
:103D10000FBECDBFDF91CF9108951F93CF93DF9357
:103D2000C0918F0216E080919002C81799F0D0E000
:103D30001C9FF0011D9FF00D1124EF56FD4F408197
:103D4000518162817381848195810E947D1E2196BB
:103D5000C770E9CFDF91CF911F9108954091C102C3
:103D60005091C2026091C3027091C4028091C50259
:103D70009091C6020C947D1E0F931F93CF93DF93F7
:103D80008091C60282958F7009F05DC08091C30258
:103D9000882309F458C080918F021091900260919D
:103DA000C1027091C202C091C402D091C50291E0DB
:103DB0006F3F09F090E0292F06E0811709F443C016
:103DC000209721F07F3F21F030E003C031E001C0B7
:103DD000322F90E030FD34C0089FF001099FF00DB4
:103DE0001124DF01AF56BD4F11963C911197371347
:103DF00027C03C91361324C012963C911297311182
:103E00001FC013964D915C9114974C1B5D0B483C61
:103E10005105B0F48091C6028F7080618093C60214
:103E2000EA56FD4F80818F708061808381EC92E043
:103E30000E94F71DDF91CF911F910F910C948D1E61
:103E400001968770BACFDF91CF911F910F9108959E
:103E50009F92AF92BF92CF92DF92EF92FF920F9319
:103E60001F93CF93DF93CDB7DEB761970FB6F8946A
:103E7000DEBF0FBECDBF8C0185E0F801DE011D96CF
:103E800001900D928A95E1F7F80140815181E2801D
:103E90009091C1026091C2022091C4023091C5028A
:103EA0002115310531F06F3F31F481E09F3F19F466
:103EB00003C081E001C080E0F82FF1709F2E80FDEB
:103EC00046C1F801A380B48081ECC82E82E0D82ED0
:103ED000F090C302F501E21BF30BFF2009F4DFC0F1
:103EE0008091C602E83CF10508F09BC0282F207F96
:103EF00009F052C0561313C0491311C0FE2CE11033
:103F00000EC08F7080618093C6020E94AE1EC601F3
:103F10000E94F71D8091C602F801858358C1AB2825
:103F200031F05F3F31F481E04F3F19F403C081E08D
:103F300001C080E080FD03C081E08E2502C080E0EA
:103F400090E0F82FF170FF2E80FF1CC080918F024F
:103F50002091900236E0821709F417C190E0389F53
:103F6000F001399FF00D1124EF56FD4F618156137A
:103F700006C06081461303C06281E61203C0019649
:103F80008770E9CFFE2CEE2009F421C18091C60292
:103F900081608093C6025AC0561306C0491304C0FC
:103FA000E11002C0F8019FC04D875E878D859E8518
:103FB0000E94691E882379F1EE2069F12091C602E2
:103FC000822F82958F7090E0029774F08091C102E9
:103FD0009091C20298878F831986BB86AA862C8708
:103FE000CE0107960E94F71D86E0F801A1ECB2E031
:103FF00001900D928A95E1F70E94BC1E0E94AE1EB0
:104000000DC0561729F14D875E878D859E850E94CC
:10401000691E81112CC0C8010E94F71DFF24F39472
:10402000D6C0282F207F69F77A2DB98AA88A6E2DED
:1040300089890E946E1E81EC92E00E94F71D86E045
:10404000F60111928A95E9F70E94AE1EF12CBFC0CD
:104050004913D9CFE110D7CFF8018583C8010E9459
:10406000F71D86E0F60111928A95E9F7B0C0EE20BF
:1040700091F22091C602822F82958F7090E0029774
:104080000CF4B2CF8091C1029091C2029A838983CD
:104090001B82BD82AC822E83CE010196A3CFE83C69
:1040A000F10508F047C0FE2CEE2009F4B4CF5613FA
:1040B00030C049132EC02091C60220FD21C0822F9E
:1040C00082958F70482F50E041155105C9F0F801D5
:1040D00025834F30510541F08F5F982F9295907F47
:1040E000822F8F70892B8583C8010E94F71D86E07F
:1040F000F801A1ECB2E001900D928A95E1F742C07F
:1041000086E0F801A1ECB2E001900D928A95E1F70A
:104110005EC04D875E878D859E850E94691E8111D8
:1041200063CF8091C60281608093C602C8010E945D
:10413000F71D4DC07A2DB98AA88A6E2D89890E94F3
:104140006E1E86E0F60111928A95E9F71BC0EE20FB
:1041500009F461CF4D875E878D859E850E94691E1B
:10416000F82E882309F457CF86E0F801A1ECB2E0DD
:1041700001900D928A95E1F781EC92E00E94771A06
:104180000E94BC1E0E94AE1E22C04D875E878D8598
:104190009E850E94CE23292F22952F70223028F44D
:1041A0009F7039F0811105C00BC0243028F49F7036
:1041B00049F4805E883020F0C8010E94F71D9F2CD2
:1041C000F92C05C0F8019581907F99F7F9CF8F2DD3
:1041D00061960FB6F894DEBF0FBECDBFDF91CF91D1
:1041E0001F910F91FF90EF90DF90CF90BF90AF9015
:1041F0009F9008951F93CF93DF93CDB7DEB72C9791
:104200000FB6F894DEBF0FBECDBF4F8358876987C6
:104210007A878B879C87CE0107960E94281F882368
:10422000D1F09F8188852A853B85232B31F08F3FF4
:1042300031F481E09F3F19F403C081E001C080E0C8
:1042400080FD47C04F81588569857A858B859C851F
:104250000E947D1E3EC086E0FE013796DE0111966B
:1042600001900D928A95E1F7FF81E8856A857B854B
:104270006115710531F0EF3F31F481E0FF3F19F432
:1042800003C081E001C080E080FD23C02091900246
:1042900030E0C90101968770992740918F0250E064
:1042A00084179507F1F1F983EA837D836C8396E0A7
:1042B000929FD001939FB00D1124AF56BD4FFE01C8
:1042C000319601900D929A95E1F7809390020E94A9
:1042D0008D1E16E080918F0290919002891771F1E6
:1042E000189FC00111248F569D4F0E94281F8823BC
:1042F00029F1E0918F021E9FF0011124EF56FD4F2E
:104300004081518162817381848195810E947D1EEB
:1043100080918F0290E001968770992780938F0299
:10432000D9CF0E94411E1092900210928F02E1ECB0
:10433000F2E086E0DF011D928A95E9F72C960FB630
:10434000F894DEBF0FBECDBFDF91CF911F910895CE
:10435000EF92FF920F931F93CF93DF938C01892BE2
:1043600009F46CC0F12CEE24E394E8012196F801E5
:104370008491843740F4843008F051C0813081F05A
:10438000823019F15BC0853709F444C0A8F19CE77D
:10439000980F903708F052C08F770E942C1B41C0B5
:1043A0000E5F1F4FFE01849190E2980F983050F4F9
:1043B0008770FE2D01C0FF0F8A95EAF78F2F0E94AC
:1043C000302414C00E947D1A2DC00E5F1F4FFE01C5
:1043D000849190E2980F983060F48770FE2D01C0B0
:1043E000FF0F8A95EAF78F2F0E9436240E945B24E4
:1043F00019C00E942C1B16C00E5F1F4FFE01C491F6
:10440000CC2381F08FE99FE00197F1F700C0000015
:10441000C150F6CF0E5F1F4FFE01F49003C00E9403
:104420007D1A8E018F2D882309F49FCFEFE9FFE0DD
:104430003197F1F700C000008150F5CFDF91CF91A7
:104440001F910F91FF90EF900895089508950C9497
:1044500026220C9427220E94292260931103709334
:10446000120380931303909314030C94271E0C944F
:104470002B220F931F93009111031091120320918F
:10448000130330911403602B712B822B932B1F91FC
:104490000F910C942B220F931F93009111031091F5
:1044A000120320911303309114036023712382239C
:1044B00093231F910F910C942B220F931F93009124
:1044C00011031091120320911303309114036027FC
:1044D0007127822793271F910F910C942B220C9404
:1044E00026220E946F2260930D0370930E03809327
:1044F0000F03909310030C94271E60E070E0CB0133
:104500000C9471220F931F9341E050E060E070E043
:104510008A019B0104C0000F111F221F331F8A95BF
:10452000D2F7C901B8011F910F910C9471220F931A
:104530001F9341E050E060E070E004C0440F551F5D
:10454000661F771F8A95D2F780910D0390910E0315
:10455000A0910F03B09110038A019B01082B192B26
:104560002A2B3B2BC901B8011F910F910C9471228A
:104570000F931F9341E050E060E070E004C0440FEF
:10458000551F661F771F8A95D2F740955095609505
:10459000709580910D0390910E03A0910F03B0913F
:1045A00010038A019B01082319232A233B23C901F5
:1045B000B8011F910F910C9471220F931F9341E04A
:1045C00050E060E070E004C0440F551F661F771F85
:1045D0008A95D2F780910D0390910E03A0910F035D
:1045E000B09110038A019B01082719272A273B272E
:1045F000C901B8011F910F910C9471220F931F9361
:1046000000910D0310910E0320910F0330911003C0
:10461000602B712B822B932B1F910F910C94712285
:104620000F931F9300910D0310910E0320910F0320
:104630003091100360237123822393231F910F91E4
:104640000C9471220F931F9300910D0310910E0390
:1046500020910F0330911003602771278227932741
:104660001F910F910C947122089529E0929F800D63
:104670001124E82FE695E695E695877051E001C094
:10468000550F8A95EAF785E0E89FF0011124E95378
:10469000FD4F20E030E070E04081CB01022E02C0EF
:1046A000969587950A94E2F78170819584278523F2
:1046B000842781932F5F3F4F2530310569F7089597
:1046C00029E0929F800D1124682F66956695669566
:1046D000982F977085E0689FB001112440E050E06A
:1046E00080E0FB01E40FF51FE953FD4F208130E02E
:1046F000092E02C0369527950A94E2F721703327D8
:10470000042E01C0220F0A94EAF7822B4F5F5F4FFD
:104710004530510531F70895BF92CF92DF92EF9265
:10472000FF920F931F93CF93DF938C01C0900D03E3
:10473000D0900E03E0900F03F090100380911103CE
:1047400090911203A0911303B0911403C82AD92A9F
:10475000EA2AFB2ACFE1D0E0D701C6010C2E04C023
:10476000B695A795979587950A94D2F780FD04C0D2
:10477000219790F7B12C07C0BC2EB8018C2F0E9456
:10478000FD040197A9F38B2DDF91CF911F910F911C
:10479000FF90EF90DF90CF90BF900895CF93DF937D
:1047A000EC010E948C23BE010E94FD04DF91CF9199
:1047B00008951F93CF93DF93EB0190918E0299237D
:1047C00021F0CB010E94CE2313C0882349F0CB01F6
:1047D0000E948C23182F682FCE010E94352304C01D
:1047E000CB010E946023182FBE01812F0E94FD047F
:1047F000DF91CF911F91089580911503859585953F
:1048000085950895809115038770089590911503FB
:10481000977081E009F480E008958091390308954C
:1048200090913903892B8093390308958095909155
:104830003903892380933903089510923903089529
:1048400090913803892B8093380308958095909137
:10485000380389238093380308951092380308950C
:1048600090913703892B8093370308958095909119
:1048700037038923809337030895109237030895EF
:1048800080911603089508950C9443240C944424B5
:1048900090911603981721F0809316030C944624E8
:1048A000089580911603882329F01092160380E062
:1048B0000C9446240895E0912001F091210180910B
:1048C00039038083E0912001F09121019081809152
:1048D0003803892B8083E0912001F09121019081A0
:1048E00080913703892B808380911603882381F080
:1048F000E0912001F09121019081892B80838091AA
:104900002001909121010E947D2581110E94512456
:1049100080912001909121010C94F0180C94432473
:1049200098E0899F90011124262B209315030E9463
:104930009722809115038595859585950C948E24F5
:104940001092150380E00C948E242091150380951D
:10495000822380931503982F977079F430E0482FC5
:10496000082E000C550B2417350739F085958595D1
:1049700085950E94B8220C94A024089580E00895A3
:104980006FEF7FEF80E090E00C94942F80E090E058
:104990000E94702F21E08B3E9E4F09F020E0822F75
:1049A000089582E090E00C94622F83E090E00C94F4
:1049B000622FCF9384E090E00E94622FC82F81E2A3
:1049C00090E00E94622F2C2F30E0A901582BCA01E1
:1049D000CF910895CF93C92F682F84E090E00E9473
:1049E000762F6C2F81E290E0CF910C94762F86E0A9
:1049F00090E00C94622F682F86E090E00C94762F64
:104A0000AB01BC018FE090E00C94882FAB01BC019E
:104A100083E190E00C94882F60E070E0CB010C946F
:104A2000062560E070E0CB010E9400250C940C2567
:104A30006BEE7EEF80E090E00E94942F60E082E0D9
:104A400090E00E94762F60E083E090E00E94762F55
:104A50001092110310921203109213031092140378
:104A600060E084E090E00E94762F60E081E290E0D8
:104A70000E94762F60E085E090E00E94762F60E053
:104A800086E090E00E94762F6FEF87E090E00E9432
:104A9000762F40E050E0BA0188E090E00E94882F35
:104AA00060E08DE090E00E94762F40E050E0BA0197
:104AB00088E190E00E94882F60E087E190E00E940A
:104AC000762F40E050E0BA018CE190E00E94882F00
:104AD00060E080E290E00E94762F40E050E0BA0172
:104AE00088E190E00E94882F0C9411250C941825E1
:104AF000682F8EE090E00C94762FFC013296809126
:104B00002C01882331F08091D40387FF02C09EE1FD
:104B100001C096E080E0915028F021912223D9F342
:104B20008F5FF9CF0895662351F120912C01222344
:104B3000E9F02091D40327FF19C0462F46954695EA
:104B400046954E31E0F4677021E030E002C0220F5C
:104B5000331F6A95E2F7FC01E40FF11D828190E0BA
:104B60002823392381E0232B69F409C0FC01329604
:104B700008962191621729F0E817F907D1F780E02C
:104B8000089581E008959C01FC0132969FEF80E03A
:104B90004191461789F09F3F19F4411101C0982FA8
:104BA0008F5F8630A9F79F3F39F0F901E90FF11DBA
:104BB00097FDFA956283089508959C012A5F3F4FFF
:104BC000FC014281461301C01282019682179307AD
:104BD000B9F70895262F2695269526952E3168F447
:104BE000FC01E20FF11D677021E030E001C0220FEF
:104BF0006A95EAF78281282B22830895262F26952D
:104C0000269526952E3170F4FC01E20FF11D677098
:104C100021E030E001C0220F6A95EAF720958281F9
:104C200028232283089520912C01222329F020910A
:104C3000D40327FD0C94EA250C94C32520912C0164
:104C4000222329F02091D40327FD0C94FE250C94F7
:104C5000DD2520912C01FC013296222331F0809138
:104C6000D40387FF02C08EE101C086E0DF011D9200
:104C70008A95E9F7089508950C943B260C943B26F9
:104C8000CF930E943E260E9446070E943C26C0E029
:104C90008C2F0E94EC06892B29F4CF5FCC30C1F712
:104CA00080E001C081E0CF9108950C943B260C94E4
:104CB00055268091DA03843009F42EC00E945726CD
:104CC00080E00E94C81580E00E94D5040E94551221
:104CD00010923B0320E488E190E00FB6F894A89589
:104CE000809360000FBE2093600083B7817F846053
:104CF00083BF83B7816083BF7894889583B78E7FA5
:104D000083BF0FB6F894A895809160008861809366
:104D10006000109260000FBE08950C943B260E9424
:104D2000411E0E9486140E94E4180E94D5040E942D
:104D300021130C948D261F920F920FB60F921124FF
:104D40008F939F93AF93BF9380913B03811113C0C7
:104D50008091D0039091D103A091D203B091D3035D
:104D60004196A11DB11D8093D0039093D103A093D0
:104D7000D203B093D303BF91AF919F918F910F90C6
:104D80000FBE0F901F90189582E084BD93E095BDF3
:104D90009AEF97BD80936E0008952FB7F894809195
:104DA000D0039091D103A091D203B091D3032FBF30
:104DB00008952FB7F8946091D0037091D10380913A
:104DC000D2039091D3032FBF08959C014FB7F8945D
:104DD0008091D0039091D103A091D203B091D303DD
:104DE0004FBF821B930B089578941F920F920FB6BA
:104DF0000F9211248F939F93AF93BF938091D00311
:104E00009091D103A091D203B091D3030196A11D3B
:104E1000B11D8093D0039093D103A093D203B0939C
:104E2000D303BF91AF919F918F910F900FBE0F90C1
:104E30001F90189581E08093E00080E28093D80075
:104E40001092C9008FE19EE40197F1F700C00000C5
:104E500087E090EBDC018093E3039093E403A0935D
:104E6000E503B093E6039CE088E10FB6F894A895BB
:104E7000809360000FBE90936000FFCF9093DB01A2
:104E80008093DA0108950C94C0240E9446078FE3B2
:104E90009CE90197F1F700C000000E94460780E0FE
:104EA0000E94EC0680FF04C00E9443270C941A273E
:104EB00008950E94C624811102C00E9476250E9496
:104EC000D12480933A030E94D9249093D5038093F0
:104ED000D4030E94D524682F70E080E090E00E9407
:104EE000372260910D0370910E0380910F03909112
:104EF00010030C946F2280915C030895CF93DF938D
:104F000000D01F92CDB7DEB79091DA03943019F537
:104F100089837B836A8382E08093E9008FEF90919D
:104F2000E800815095FD06C095ED9A95F1F70000D7
:104F30008111F5CF8091E80085FF0DC040E050E081
:104F400063E070E0CE0101960E94B0298091E800F4
:104F50008E778093E8000F900F900F90DF91CF91A4
:104F60000895BC0184E00C947E27BC0183E00C947E
:104F70007E2722E02093E9002FEF3091E8002150B6
:104F800035FD06C035ED3A95F1F700002111F5CF5A
:104F90002091E80025FF0BC040E050E066E070E0A3
:104FA0000E94B0298091E8008E778093E8000895F0
:104FB000CF93DF9320912C01222339F02091D40349
:104FC00027FF03C060E222E002C068E021E02093F6
:104FD000E9002FEF3091E800215035FD06C035ED96
:104FE0003A95F1F700002111F5CF2091E80025FF57
:104FF0001DC0EC0180912C01811105C040E050E002
:1050000068E070E003C070E040E050E0CE010E9434
:10501000B0298091E8008E778093E80080E2FE015D
:10502000ACE3B3E001900D928A95E1F7DF91CF9167
:1050300008958091D903811109C00E94412B0E94DB
:105040009E2B8091E20084608093E200089510928C
:10505000D903089508950895089542E061EC81E030
:105060000E94BA2A42E261EC82E00C94BA2A809152
:10507000DC03833009F460C030F4813071F0823099
:1050800009F499C008958A3009F485C08B3009F479
:105090006BC0893009F0A7C020C08091DB03813A42
:1050A00009F0A1C08091E800877F8093E80080919B
:1050B000DF039091E003892B21F460E28CE393E01D
:1050C00003C060E080E090E070E00E94FB298091E6
:1050D000E8008B778093E80008958091DB038132AC
:1050E00009F081C08091DF039091E003029708F0FE
:1050F0007AC08091E800877F8093E8008091E80083
:1051000082FD05C08091DA038111F8CF6CC0209137
:10511000F3008091F20090E0922B029729F48091A5
:10512000F1008B7F813021F48091F10080935C034A
:105130008091E8008B7753C08091DB03813A09F0BE
:1051400052C08091DF039091E003892B09F04BC09E
:105150008091E800877F8093E8008091E80080FFDD
:10516000FCCF80912C0136C08091DB038132D9F5D0
:105170008091DF039091E003892BA9F58091E800ED
:10518000877F8093E8000E94EF2A8091DD0380935F
:105190002C010C94411E8091DB03813221F580911A
:1051A000E800877F8093E8000E94EF2A8091DE0369
:1051B00080935D0308958091DB03813AA1F480918F
:1051C000E800877F8093E8008091E80080FFFCCFB3
:1051D00080915D038093F1008091E8008E77809349
:1051E000E8000C94EF2A089584B7877F84BF0FB638
:1051F000F894A89580916000886180936000109277
:1052000060000FBE90E080E80FB6F89480936100D4
:10521000909361000FBE0E946F190E94412B0E9463
:105220009E2B8091E20084608093E20078940E943B
:10523000332E0E94791982E291E00E94DF1880915A
:10524000DA038530A9F48091DA03853079F40E947D
:1052500059268091D8038823B1F30E9440268823E1
:1052600091F30E949A290E94411EEDCF0E948F2641
:105270000E9485190E9463190E946219E0CF0C9464
:105280004129292F332723303105C9F060F421301B
:10529000310581F02230310509F044C08BE390E004
:1052A00028E236E043C021323105E1F022323105F7
:1052B00049F138C082E190E023E636E037C0992713
:1052C0008130910549F028F0029761F5EAEFF5E0A9
:1052D00005C0E4E2F6E002C0E2E1F6E0849190E08D
:1052E0009F0124C06115710541F061307105D1F451
:1052F00089E090E023E536E019C089E090E02AE3F8
:1053000036E014C06115710541F06130710551F44A
:1053100086EB90E025E736E009C080E490E02BE2E0
:1053200037E004C080E090E020E030E0FA01318313
:105330002083089580E189BD82E189BD09B400FE22
:10534000FDCF8091D8008F7D8093D8008091E000C0
:1053500082608093E0008091E00081FDFCCF0895A1
:10536000CF92DF92EF92FF920F931F93CF93DF9331
:10537000EC018B017A010E940E2B811133C0E114E4
:10538000F10439F0F70180819181081B190BC80FD6
:10539000D91FC12CD12C0115110519F18091E800FC
:1053A00085FD16C08091E8008E778093E800E114B7
:1053B000F10449F0F70180819181C80ED91ED18294
:1053C000C08285E00FC00E940E2B882321F30AC003
:1053D00089918093F10001501109FFEFCF1ADF0A84
:1053E000DACF80E0DF91CF911F910F91FF90EF9086
:1053F000DF90CF9008952091E1033091E2032617CA
:10540000370748F06115710539F42091E8002E77CF
:105410002093E80001C0B901FC0120E0611571058D
:1054200079F18091DA038823F1F18530F1F18091EF
:10543000E80083FD3CC08091E80082FD2EC0809191
:10544000E80080FFEBCF2091F3008091F20090E024
:10545000922B6115710551F08830910538F4219136
:105460002093F100615071090196F3CF21E0089774
:1054700009F020E08091E8008E778093E800CECF9D
:105480002111CFCF0AC08091DA03882361F08530E3
:1054900061F08091E80083FD0AC08091E80082FFFE
:1054A000F2CF80E0089582E0089583E0089581E0DE
:1054B00008952091E1033091E2032617370748F061
:1054C0006115710539F42091E8002E772093E800EA
:1054D00001C0B901FC0120E06115710591F18091D5
:1054E000DA03882309F440C0853009F43FC0809175
:1054F000E80083FD3DC08091E80082FD2FC08091CF
:10550000E80080FFE9CF2091F3008091F20090E065
:10551000922B6115710559F08830910540F4249162
:105520002093F1003196615071090196F2CF21E08C
:10553000089709F020E08091E8008E778093E800DA
:10554000CBCF2111CCCF0AC08091DA03882361F040
:10555000853061F08091E80083FD0AC08091E80009
:1055600082FFF2CF80E0089582E0089583E00895FD
:1055700081E00895982F973068F59093E900981787
:1055800039F07091EC002091ED005091F00003C0D3
:10559000242F762F50E021FD02C09F5FECCF309189
:1055A000EB003E7F3093EB003091ED003D7F309378
:1055B000ED003091EB0031603093EB007093EC0024
:1055C0002093ED005093F0002091EE0027FDE5CFF1
:1055D00080E008958F708093E90081E008958091C4
:1055E000DB0387FF11C08091E80082FD05C0809138
:1055F000DA038111F8CF11C08091E8008B770BC0DE
:105600008091DA03882349F08091E80080FFF8CF89
:105610008091E8008E778093E80008952091E4005F
:105620003091E50095E64091EC00842F817040FFB9
:1056300023C08091E80080FD1DC08091DA0388239B
:1056400099F0853099F08091EB0085FD11C0409173
:10565000E4005091E5002417350729F3915011F02B
:105660009A01E1CF84E0089582E0089583E00895EF
:1056700081E0089580E008954091E80042FFDDCF89
:1056800008950E94AF2B0E94B72BE0EEF0E08081DE
:1056900081608083E8EDF0E080818F77808319BCA2
:1056A000A7EDB0E08C918E7F8C9380818F7E80837C
:1056B0001092D90308950F931F93CF93DF930E9405
:1056C000AF2B0E94B72BC8EDD0E088818F778883FD
:1056D00088818068888388818F7D888319BC109237
:1056E000DA031092D6031092D8031092D70300EE7B
:1056F00010E0F80180818B7F8083888181608883BE
:1057000042E060E080E00E94BA2AE1EEF0E08081B1
:105710008E7F8083E2EEF0E08081816080838081F3
:1057200088608083F80180818E7F8083888180619A
:105730008883DF91CF911F910F910895E8EDF0E0FC
:1057400080818F7E8083E7EDF0E0808181608083BF
:1057500084E082BF81E08093D9030C945B2BE8ED59
:10576000F0E080818E7F80831092E2000895109295
:10577000DA001092E10008951F920F920FB60F9277
:1057800011242F933F934F935F936F937F938F9346
:105790009F93AF93BF93EF93FF938091E10082FFBC
:1057A0000BC08091E20082FF07C08091E1008B7FF7
:1057B0008093E1000E94322E8091DA0080FF1FC0AA
:1057C0008091D80080FF1BC08091DA008E7F80938B
:1057D000DA008091D90080FF0DC080E189BD82E1AF
:1057E00089BD09B400FEFDCF81E08093DA030E94F9
:1057F000192805C019BC1092DA030E94272880914D
:10580000E10080FF19C08091E20080FF15C0809107
:10581000E2008E7F8093E2008091E20080618093BD
:10582000E2008091D80080628093D80019BC85E0A6
:105830008093DA030E942B288091E10084FF30C01E
:105840008091E20084FF2CC080E189BD82E189BDA6
:1058500009B400FEFDCF8091D8008F7D8093D800E1
:105860008091E1008F7E8093E1008091E2008F7E45
:105870008093E2008091E20081608093E200809159
:10588000D603882311F084E007C08091E30087FDF0
:1058900002C081E001C083E08093DA030E942C28DB
:1058A0008091E10083FF29C08091E20083FF25C041
:1058B0008091E100877F8093E10082E08093DA03AA
:1058C0001092D6038091E1008E7F8093E100809159
:1058D000E2008E7F8093E2008091E20080618093FD
:1058E000E20042E060E080E00E94BA2A8091F0008D
:1058F00088608093F0000E942A28FF91EF91BF9169
:10590000AF919F918F917F916F915F914F913F9157
:105910002F910F900FBE0F901F9018951F920F920E
:105920000FB60F9211242F933F934F935F936F9372
:105930007F938F939F93AF93BF93CF93DF93EF9317
:10594000FF93C091E900CF708091EC00D82FD17007
:1059500080FDD0E81092E9008091F000877F80936D
:10596000F00078940E94D22C1092E9008091F0000F
:1059700088608093F000CD2BCF70C093E900FF9139
:10598000EF91DF91CF91BF91AF919F918F917F91D7
:105990006F915F914F913F912F910F900FBE0F909C
:1059A0001F9018951F93CF93DF93CDB7DEB7AA97BB
:1059B0000FB6F894DEBF0FBECDBFEBEDF3E08091E4
:1059C000F100819323E0E33EF207C9F70E943728F4
:1059D0008091E80083FF2EC18091DB039091DC036E
:1059E000492F50E04A30510508F024C1FA01E25332
:1059F000FF4F0C94C22E803821F0823809F01AC172
:105A000008C08091D7039091D803992389F08260D0
:105A10000FC08091DF038F70873008F00BC1809337
:105A2000E9008091EB0085FB882780F91092E9005E
:105A30009091E800977F9093E8008093F100109296
:105A4000F100D1C0282F2D7F09F0F4C0882319F070
:105A5000823061F0EFC08091DD03813009F0EAC04F
:105A6000933009F080E08093D8032EC08091DD034D
:105A700081112AC08091DF038F702FEF280F26300D
:105A800008F0D8C08093E9002091EB0020FF1CC0F3
:105A9000933021F48091EB00806214C09091EB0070
:105AA00090619093EB0021E030E0A90102C0440F27
:105AB000551F8A95E2F74093EA001092EA00809120
:105AC000EB0088608093EB001092E9008091E80081
:105AD000877F8093E8000E94EF2AACC08111AAC0A2
