:100000000C94D0010C9417020C9417020C94170254
:100010000C9417020C9417020C9417020C941702FC
:100020000C9417020C9417020C943B1F0C940D2097
:100030000C94111A0C9417020C9417020C941702CA
:100040000C9417020C9417020C9417020C941702CC
:100050000C9417020C946A1A0C9417020C94170251
:100060000C9417020C9417020C9417020C941702AC
:100070000C9417020C9417020C9417020C9417029C
:100080000C9417020C9417020C9417020C9417028C
:100090000C9417020C9417020C9417020C9417027C
:1000A0000C9417020C9417020C941702700F700F27
:1000B000A20FA20FEF0F0D102E112E111810AD1060
:1000C000BE10BE101E112E112E112711CE11CE11F1
:1000D000E011E011D711E011E011E011CE11CE11C5
:1000E000DC11E011E011DC117A20A1209921A1207E
:1000F0009921ED201021992167217621165C1E009F
:100100001F002000210022002300240025002600DB
:1001100027002D002E002A004A002B0014001A0090
:100120000800150017001C0018000C001200130036
:100130002F00300031004B00396104001600070029
:1001400009000A000B000D000E000F003300340000
:10015000000028004E00E1001D001B0006001900F1
:100160000151050011001000360037003800E5008D
:1001700052000000E0000000E3002C000000E2005C
:1001800000002C000000E4000000000050005100BE
:100190004F0035003A003B003C003D003E003F0070
:1001A0004000410042004300440045004C004D0027
:1001B0000100C35CC45CC65CC75CC85CC95C000071
:1001C000490000004600470048000000A9003961CE
:1001D000CC5CCD5C005C010001000100010001006D
:1001E0000100010001000000DF5CAA00E100010045
:1001F00001000100010001000100010001000100F7
:1002000001000100A900A800010001000000010098
:1002100001000000010000000100000001000000DA
:100220000000AC004800AB001C034D0041004A0038
:1002300041005F0053004F004C0044004500520055
:1002400045004400000010034B00420044004600FB
:1002500041004E00530000000403090409023B0062
:10026000020100A0FA0904000001030101000921B4
:10027000110100012240000705810308000A09045A
:100280000100010300000009211101000122B60054
:100290000705820320000A12011001000000084235
:1002A0004B696001000102000105010902A10185FD
:1002B000020901A100050919012908150025019568
:1002C00008750181020501093009311581257F95E5
:1002D000027508810609381581257F950175088109
:1002E00006050C0A38021581257F950175088106DF
:1002F000C0C005010980A101850319012AB70015B5
:100300000126B700950175108100C0050C0901A1F7
:1003100001850419012AA002150126A00295017584
:10032000108100C005010906A1018505050719E036
:1003300029E71500250195087501810205071900B7
:1003400029EF1500250195F07501810205081901B5
:100350002905950575019102950175039101C00567
:10036000010906A101050719E029E71500250195F6
:100370000875018102950175088101050719002999
:10038000FF150026FF009506750881000508190174
:100390002905950575019102950175039101C0002C
:1003A00011241FBECFEFDAE0DEBFCDBF04B603FEDF
:1003B00027C080919F029091A002A091A102B091CC
:1003C000A2028730904BA740B04BD1F410929F020D
:1003D0001092A0021092A1021092A20214BE84B741
:1003E000877F84BF0FB6F894A895809160008861DC
:1003F00080936000109260000FBEE0E0F8E3099582
:1004000011E0A0E0B1E0E6E1F5E402C005900D9254
:10041000AC38B107D9F722E0ACE8B1E001C01D92D9
:10042000AF39B207E1F70E946A1C0C9489220C9440
:100430000000549A0C940D05CF93C82F0E94DD0242
:10044000882329F0C1FD02C05C9A01C05C98CF915D
:10045000089581E0089581E008950C942B02089599
:100460000C942F021F93CF93DF9300D000D01F92E4
:10047000CDB7DEB749835A836B833091BB01898145
:100480009A81311114C0662359F0222349F00E9449
:100490000717182F682F89819A810E94B01603C010
:1004A0000E94DB16182F69817A81812F04C00E9477
:1004B000071769817A810F900F900F900F900F901E
:1004C000DF91CF911F910C94EC02FC01262F40810B
:1004D00051816281738184810C943202CF93DF93C6
:1004E000EC0160E00E946502BE01DF91CF910C94A7
:1004F00030020E94BB1A0E944118811102C00E9462
:10050000F1180E94320A0C9419020C940B050895FC
:100510000E94BC110E9487022FEF84E39CE02150CF
:1005200080409040E1F700C000000C94901A0F93B7
:100530001F93CF93DF93EC0161E00E9465028C0171
:10054000BE010E942D02882379F1BE01C8010E94DC
:100550009309882349F1BE01C8010E94B50A882386
:1005600019F1BE01C8010E94070B8823E9F0BE0102
:10057000C8010E94320C8823B9F08A81882369F06F
:1005800001158CE5180731F00F3D1C4531F40E9430
:10059000F1180AC00E94880207C0CE01DF91CF91F6
:1005A0001F910F910C94290280E0DF91CF911F9150
:1005B0000F91089508950C94DA0281E00895CF9385
:1005C000C82F0E94DB028C2F0E941C02CF9108953D
:1005D00080E090E0089508952BE4829FC0011124EB
:1005E000FC012FE0729FE00DF11D1124E60FF11DBB
:1005F000EE0FFF1FE450FF4F859194910895880FEF
:10060000991FFC01E85DFD4F859194910895CF936A
:10061000DF930E94EC020E941F04EC0181159045BB
:1006200008F041C0C11580E4D80708F0D1C0C83E29
:10063000D10510F5C03ED10508F0FDC0C83AD1057E
:1006400078F4C53AD10508F0A2C0C130D10509F44B
:10065000F2C008F4EEC0C430D10508F0ECC0E9C027
:10066000CF3BD10508F49BC0C03CD10508F4E1C0E4
:10067000CE01805C91099EC0C11590E2D90758F463
:10068000C11521E0D20708F0D6C0CD3ED10508F44F
:10069000D0C0D065D0C0C11580E3D80708F08EC0A7
:1006A000CE019F7087C0C11595E5D90708F043C0FA
:1006B000C11524E5D20708F0A2C0C11582E5D8070C
:1006C00008F5C11591E5D90708F085C0CE0174E0A1
:1006D000969587957A95E1F783709C2F937021E02A
:1006E00030E002C0220F331F9A95E2F73C68382BA6
:1006F000CF70C695C69580E2C89FE0011124C22B39
:10070000D32B99C09E01237033278C2F8695869515
:10071000C115D34508F064C0C1E0D0E002C0CC0FE1
:10072000DD1F2A95E2F720E2829FC0011124C82B29
:10073000D92BDC6880C0C11529E5D207A0F4C1150A
:1007400088E5D80708F060C0C11596E5D90708F01C
:1007500070C08C2F0E94B3048F71C82FD0E0DC2FA3
:10076000CC27D06268C0C1152AE5D20708F451C071
:10077000CE0190568115904208F05BC08D2F8F718D
:100780000E94B304DD27D0628F71D82B54C0C55AA4
:10079000D0E0CD5BDE4FC881D0E0D0644CC0C85AF9
:1007A000D0E0CC0FDD1FCB5EDE4F0990D881C02D8D
:1007B000D46441C00E94FF02EC013DC0CE019927E4
:1007C000D3FF03C0EC01D86C36C0EC01D06C33C051
:1007D000DF70D06A30C0DC2FCC27C16FD06A2BC04D
:1007E000C1E0D0E002C0CC0FDD1F2A95E2F720E285
:1007F000829FC0011124C82BD92BDA681CC0DC2FC2
:10080000CC27C46FD06A17C0DC2FCC27C06FD06A4A
:1008100012C08C2F8F700E94B30494E0D695C795B8
:100820009A95E1F7CF70D0E0DC2FCC27D069C82BA8
:1008300002C0C0E0D0E0CE01DF91CF9108958238B0
:10084000910569F1B0F48133910509F46DC048F464
:100850008932910509F463C08A32910509F469C0AF
:1008600008958533910509F455C089339105B9F090
:100870000895833E910569F138F4803E9105B1F009
:10088000823E910509F10895863E9105A9F1873EC2
:100890009105B9F1843E910509F064C023C020910F
:1008A000900220FD4FC021FD4DC00895809190021F
:1008B00080FD44C08091910280FF44C080919002ED
:1008C00084FD42C083EE4DC08091900282FF38C00B
:1008D000F5CF8091900282FD33C08091910280FD1E
:1008E00031C0ECCF8091910281FF32C080919002A3
:1008F00084FD2AC087EE35C08091900283FF26C018
:10090000F5CF8091900283FD21C08091910281FDFD
:100910001FC0ECCF8091900285FD1CC01DC080914E
:10092000900285FD19C016C08091900286FD16C008
:1009300017C08091900286FD13C010C089E311C0DA
:1009400082EE0FC080EE0DC080E00BC086EE09C0C5
:1009500084EE07C089E205C085E303C08AE201C0D6
:1009600081E390E008959091900292FF0DC0282FAE
:100970002871283019F4877F846006C0282F2471DD
:10098000243011F48B7F886093FF0DC0282F2871CD
:10099000283119F4877E846106C0282F2471243100
:1009A00011F48B7E88612091910220FF0DC0382FB9
:1009B0003871383019F4877F816006C0382F317163
:1009C000313011F48E7F886021FF0DC0282F2871EF
:1009D000283119F4877E816106C0282F21712131C9
:1009E00011F48E7E886194FD877E0895E82FF0E0F3
:1009F000EE0FFF1FEF57FD4F8081918108950895FD
:100A000080EA8A95F1F7089500C008950C940005D6
:100A100008950C9408050C9409050C940805F894A5
:100A2000E82FE295EF70F0E031A1282F2F7081E0E0
:100A300090E001C0880F2A95EAF7982F90959323AC
:100A400091A392A1892B82A3789408950F931F9369
:100A5000CF93DF9380EF0E940F0586E30E940F057E
:100A600086E90E940F0584E30E940F0587E90E9432
:100A70000F05C6E4D1E005E511E089910E940F055C
:100A80000C171D07D1F7E7E7F2E0A1E8B2E01192F9
:100A900011921D921D9282E0E138F807C1F785E0BE
:100AA0000E94EB05DF91CF911F910F910C94790279
:100AB0007F928F929F92AF92BF92CF92DF92EF92EE
:100AC000FF920F931F93CF93DF9307E712E085E523
:100AD000E82E81E0F82EC0E0D0E0712CAA24A39487
:100AE000B12C4701F7018081F894E82FE295EF706F
:100AF000F0E021A18F70A50102C0440F551F8A9517
:100B0000E2F7CA01922F982B91A392A18095892395
:100B100082A378940E940405E6E4F1E020E030E04E
:100B2000C12CD12C4191A42FA295AF70B0E090962A
:100B30008C9190E04F7002C0959587954A95E2F7A9
:100B400080FD08C0C501022E02C0880F991F0A94BB
:100B5000E2F702C080E090E0C82AD92A2F5F3F4F19
:100B60002F303105F9F65FEFE51AF50AF4018081BF
:100B70000E940F05C430D10511F00E940605F8014E
:100B800080819181C816D90621F0D182C08281E08E
:100B900001C080E0782A21960E5F1F4FC530D10535
:100BA00009F09FCF272D45E061E872E087E792E0EA
:100BB0000E94EC050E948502872DDF91CF911F9145
:100BC0000F91FF90EF90DF90CF90BF90AF909F90EC
:100BD0008F907F9008950895FF920F931F93CF9366
:100BE000DF93F82E092F162FD72FC42F222349F079
:100BF00081E0809390010E94431A90938F0180932B
:100C00008E01809190018823D9F080918E0190917E
:100C10008F010E945B1A049798F0EF2DF02FA12FFF
:100C2000BD2F80E090E04C2F50E08417950734F4FE
:100C3000219131912D933D930196F7CF1092900120
:100C4000DF91CF911F910F91FF90089580919701AF
:100C500080FF0BC06091050185E0689FB001112401
:100C600075956795759567952BC081FF09C0609153
:100C7000050185E0689FB00111247595679520C036
:100C800082FF07C06091050185E0689FB0011124D3
:100C900017C0909196019923D1F0609104019617A5
:100CA00088F72091050185E0289F90011124929FEB
:100CB000A001939F500D112470E0CA010E94F12100
:100CC0006038710540F46115710519F406C065E0DE
:100CD00070E0862F08958FE7089581E00895809150
:100CE000970180FF08C06091010170E075956795DC
:100CF0007595679521C081FF06C06091010170E084
:100D00007595679519C082FF04C06091010170E07C
:100D100010C090919501992399F060910001961768
:100D2000A0F780910101899FC001112470E00E9409
:100D3000F1216038710540F46115710519F406C0A0
:100D400061E070E0862F08958FE7089581E00895AF
:100D50008D3E21F40E942606819504C08E3E29F422
:100D60000E94260680939B0108958F3E21F40E94E5
:100D70002606819504C0803F29F40E9426068093B0
:100D80009A010895893F19F40E946F0605C08A3FB1
:100D900031F40E946F06819580939C0108958B3FEA
:100DA00021F40E946F06819504C08C3F29F40E94B3
:100DB0006F0680939D0108959FE0980F983078F416
:100DC00021E030E0A90102C0440F551F9A95E2F7D7
:100DD000CA0190919901892B8093990108958D3FC3
:100DE00021F48091970181600BC08E3F21F48091A6
:100DF0009701826005C08F3F29F48091970184603C
:100E00008093970108958D3E39F490919B0197FF4F
:100E100035C010929B0159C08E3E29F490919B01E0
:100E20001916BCF32BC090919A018F3E29F497FFBD
:100E300025C010929A0149C0803F19F41916CCF3CD
:100E40001DC090919C01893F29F41916BCF41092A1
:100E50009C013BC08A3F19F497FF10C0F8CF8B3F2D
:100E600039F490919D0197FF09C010929D012DC00A
:100E70008C3F21F490919D011916BCF39FE0980FCF
:100E8000983080F421E030E0A90102C0440F551FE2
:100E90009A95E2F7CA0180959091990189238093F0
:100EA000990113C08D3F21F4809197018E7F0BC073
:100EB0008E3F21F4809197018D7F05C08F3F29F4EB
:100EC000809197018B7F8093970180919A01811186
:100ED00006C080919B01811102C010929601809101
:100EE0009C01811106C080919D01811102C0109268
:100EF000950108950E94431A20919A01211104C07E
:100F000020919B01222321F09093940180939301DF
:100F100020919C01211104C020919D01222321F0E8
:100F2000909392018093910188E991E00C948E0C4A
:100F3000EF92FF920F931F93CF93DF9300D000D0D7
:100F400000D0CDB7DEB786E0E8E9F1E0DE0111962A
:100F500001900D928A95E1F7E0909A01F0909B0143
:100F600000919C0110919D0110929A0110929B0199
:100F700010929C0110929D01E11003C0FF2009F422
:100F80005DC080919301909194010E945B1AAC0125
:100F900090919601992339F02091060130E02417B1
:100FA000350758F04BC0209107018AE0289F900137
:100FB00011242417350718F041C09F3F19F09F5F97
:100FC00090939601EE2061F00E9426061E1414F004
:100FD0009FEF01C091E0989F902D112490939A016A
:100FE000FF2061F00E9426061F1414F09FEF01C03D
:100FF00091E0989F902D112490939B0130919A013C
:101000003323E1F020919B012223C1F045EB34030F
:10101000C0011124992319F090939A0103C081E033
:1010200080939A0135EB2303C0011124992319F011
:1010300090939B0103C081E080939B01011103C049
:10104000112309F45DC080919101909192010E9459
:101050005B1AAC0190919501992339F0209102011E
:1010600030E02417350758F04BC0209103018AE087
:10107000289F900111242417350718F041C09F3F85
:1010800019F09F5F90939501002361F00E946F0615
:10109000101614F09FEF01C091E0989F902D11243D
:1010A00090939C01112361F00E946F06111614F0B9
:1010B0009FEF01C091E0989F902D112490939D0186
:1010C00030919C013323E1F020919D012223C1F056
:1010D00045EB3403C0011124992319F090939C012E
:1010E00003C081E080939C0135EB2303C0011124F0
:1010F000992319F090939D0103C081E080939D0195
:1011000080919A0181110BC080919B01811107C0D0
:1011100080919C01811103C080919D0181110E94E9
:101120007A07EB82FC820D831E8386E0FE013196F6
:10113000A8E9B1E001900D928A95E1F726960FB6E5
:10114000F894DEBF0FBECDBFDF91CF911F910F91FD
:10115000FF90EF900895E8E9F1E086E0DF011D924D
:101160008A95E9F7109296011092950110929701D5
:1011700008950E944118811102C00E94F1180E9436
:10118000721880938B02282F26952695269530E09D
:101190002430310524F08770886180938B02809120
:1011A0008B0280FF04C086958695869501C080E0FD
:1011B0000C94C80920918B02822F8695869586957E
:1011C000482F50E04330510554F48F5F982F990F0A
:1011D000990F990F822F8770892B80938B028091B2
:1011E0008B02816080938B020E94761880918B0223
:1011F0008695869586950C94C80980918B02982FC8
:10120000969596959695A1F0915E990F990F990FE5
:101210008770892B80938B02887F91E009F490E09E
:1012200080918B0290FB80F980938B020E9476184C
:1012300080918B028695869586950C94C80980913D
:101240008B0280FD13C0816080938B02813019F482
:1012500089E080938B0280918B020E9476188091A6
:101260008B028695869586950C94C8090895809181
:101270008B0280FF08C08E7F80938B020E947618BD
:1012800080E00C94C809089580918B0280FD0C9435
:1012900037090C941F0990918B02892F86958695AA
:1012A00086958F5F8F719770843038F4880F880F20
:1012B000880F892B80938B0202C090938B028091C0
:1012C0008B02887F91E009F490E080918B0290FB83
:1012D00080F980938B020E94761880918B0286950C
:1012E000869586950C94C809843008F083E0909127
:1012F0008B029770282F220F220F220F922B909390
:101300008B02987F21E009F420E090918B0220FB72
:1013100090F990938B020C94C8090E9474098091F3
:101320008B020C9476189C01FB018281882349F181
:101330002E3BFCE53F07C9F040F42C3BECE53E07B3
:1013400069F02D3B3C4561F00895203C9CE5390750
:1013500091F070F0213C3C4589F0089583E001C094
:1013600080E00E948D0980E008950E94FD08FBCF77
:101370000E94DA08F8CF0E944409F5CF0E944B0979
:10138000F2CF81E00895259A2D9808952D9808951B
:10139000CF92DF92EF92FF92CF93C82F843050F418
:1013A000811109C0809180008F77809380000E9416
:1013B000C60906C0C3E080918000806880938000E9
:1013C0002C2F30E0AFEFBFEF0E942D2223E030E062
:1013D00040E050E00E940522B42FA32F922F8827CF
:1013E000492F5A2F6B2F7727CA014C3724E1520718
:1013F00028F469E070E00E94DD2129C0DB01CA0108
:101400008A50974DAF4FBF4F6627782F892F9A2F5D
:1014100025EF38E241E050E00E94052269017A019F
:10142000CA01B9010E94CD219B01AC01C701B601DF
:101430000E94CD21BB27A92F982F872F009721E04D
:10144000A207B10511F0BC0102C06FEF7FEF7093EE
:10145000890060938800CF91FF90EF90DF90CF904C
:10146000089508950E94C30982E88093800089E16D
:10147000809381008FEF9FEF909387008093860089
:101480000C94B9080F931F93CF93DF93C42FD22FDF
:10149000FC0182818823C9F04093A0010E94431A75
:1014A00090939F0180939E0180E28C0F883008F01A
:1014B00057C0C77081E001C0880FCA95EAF7DF9175
:1014C000CF911F910F910C942F0F8091A001481381
:1014D00030C080919E0190919F010E945B1A883CD0
:1014E000910538F510E21D0FCD17B9F080E28C0F91
:1014F000883040F4C77081E001C0880FCA95EAF7D0
:101500000E94360F183028F581E09D2F977001C09A
:10151000880F9A95EAF70E942F0F802F0E94260FBE
:101520001830F0F4D77081E001C0880FDA95EAF73F
:101530000AC080E28C0F883098F4C77081E001C047
:10154000880FCA95EAF7DF91CF911F910F910C9404
:10155000360F802FDF91CF911F910F910C94260FA2
:10156000DF91CF911F910F9108950F939C01CB01B3
:10157000243F4CE5340731F188F4293DFCE53F0771
:10158000D9F02A3D4CE5340779F1283D3C45A9F5D1
:1015900006E221EE41EE68ED7CE52BC0263FFCE53E
:1015A0003F07E1F0A8F0273F3C4539F507E225EE7B
:1015B00046EE67EF7CE51DC007E225EE45EE69EDDE
:1015C0007CE517C006E221EE40EE64EF7CE511C039
:1015D00007E225EE44EE65EF7CE50BC006E221EE66
:1015E00042EE66EF7CE505C008E221E045EE6AEDDB
:1015F0007CE50E94420A80E008C0FC0182818823C9
:1016000019F01092A00101C081E00F910895CF93CD
:10161000DF93EC01FB018281882309F41FC1C230F2
:10162000FCE5DF0708F41BC1C6319CE5D90738F09B
:101630009E012B5F3C452930310508F010C10E9406
:1016400054189093910280939002C031ECE5DE072C
:1016500009F4C3C008F041C0C8308CE5D80709F4CC
:101660009AC0F0F4C430ECE5DE0709F487C068F4F2
:10167000C2308CE5D80709F477C0C330DC4509F0E7
:10168000E3C080919002826076C0C630ECE5DE0750
:1016900009F46EC008F07BC08091900288606BC036
:1016A000CC308CE5D80709F485C068F4CA30ECE585
:1016B000DE0709F474C008F079C00E94BC11809163
:1016C0009002806858C0CE308CE5D80709F476C007
:1016D00008F07FC0809190028BC0CC3FECE5DE0724
:1016E00009F44FC018F5C3318CE5D80709F47DC063
:1016F00078F4C131ECE5DE0709F473C0C231DC4592
:1017000009F0A2C00E94BC11809190028F7733C073
:10171000C5318CE5D80709F472C008F486C0CB3F08
:10172000DC4509F091C0809191023EC0C115FDE5F4
:10173000DF0709F45FC058F4CE3F9CE5D90709F4F0
:1017400044C008F43FC08091910282602DC0C23035
:10175000FDE5DF0709F475C008F45DC0C330DD4561
:1017600009F072C080E06EC080919002816003C079
:101770008091900280618093900266C08091900277
:1017800011C0809191028260809391025DC080912E
:1017900090028062F0CF809190028064ECCF8091C3
:1017A000900288608460E7CF8160EECF80919002E4
:1017B0008E7FE1CF809190028D7FDDCF809190026E
:1017C000877FD9CF8091910218C0809191028D7F3F
:1017D000DBCF809190028F7ECECF809190028F7D63
:1017E000CACF809190028F7BC6CF80919002877F75
:1017F0008B7FC1CF809191028D7F8E7FC5CF8091ED
:10180000900282FB222720F991E0922790FB82F937
:1018100090FB83F9B0CF80919102982F90959170B1
:101820008E7F892B90FB81F9AFCF0E94BC118091F4
:10183000900287FB222720F991E0922790FB87F9FD
:101840009ACF81E00E94F3188091900290919102CA
:101850000E9465180E94BC1180E001C081E0DF9108
:10186000CF910895CF93DF9386319C4541F5EB01ED
:101870000E948817982F8A812091080130910901D0
:10188000882379F09A7A81E009F480E08093A101BD
:10189000911102C069E201C065E3C9010E948E197D
:1018A0000AC08091A101811102C069E201C065E313
:1018B000C9010E9499190E94D61780E001C081E0F9
:1018C000DF91CF9108959093A7018093A601089589
:1018D000E091A601F091A701309721F00190F081ED
:1018E000E02D099480E00895E091A601F091A70110
:1018F000309799F020911401222359F02091900201
:1019000027FF07C0DC012C9111962C93119725E03D
:101910002C930280F381E02D09940895E091A601B3
:10192000F091A701309739F022E0DC012C9304807C
:10193000F581E02D099408952091A4013091A5012D
:101940002817390771F09093A5018093A401E091C5
:10195000A601F091A701309721F00680F781E02DD4
:10196000099408952091A2013091A3012817390705
:1019700071F09093A3018093A201E091A601F091F0
:10198000A701309721F00084F185E02D0994089596
:101990000E944F1A6093B7017093B8018093B90108
:1019A0009093BA016093B3017093B4018093B50131
:1019B0009093B601089585B7806885BF85B7806824
:1019C00085BF089581E008950C94E20C08950C946D
:1019D000E60C0C94E60C0C94E90C0C94E60C0C94BC
:1019E000ED0C0C94E60C0E94DB0C89E398E10E945C
:1019F000B41A0E94F10C0C94EF0C0E943A1A0E9447
:101A000026050E94CF1A0E94B9080C94EB0C6F9225
:101A10007F928F929F92AF92BF92CF92DF92EF927E
:101A2000FF920F931F93CF93DF93CDB7DEB72A9723
:101A30000FB6F894DEBF0FBECDBF0E94E70C0E9428
:101A4000E60C0E94580581110E94C80C39EA832EC9
:101A500031E0932E00E010E0C02E802F0E94F604AB
:101A60005C01F401619071904F0168267926611440
:101A70007104B1F40F5F1F4F0530110569F78FEF47
:101A800089838A831B820E94431A8160782F9D83F9
:101A90008C8349815A816B818D810E94C30D3AC02C
:101AA0008091530281FD0E94FF04D12CEE24E39427
:101AB000F12CC3018E219F21892B29F10E94E40C76
:101AC0008823A9F0DE82CF82AE20BF2081E0AB2840
:101AD00009F480E088870E94431A8160782F9A87F2
:101AE00089874E815F8168858A850E94C30D000FBA
:101AF000111FF801E755FE4F80819181E826F926F4
:101B0000F182E08207C0D394EE0CFF1CFFE0DF12ED
:101B1000D0CFB0CF0E94310A0E9498070E94680C73
:101B20009091A8018917D1F00E94680C8093A801B8
:101B30002A960FB6F894DEBF0FBECDBFDF91CF91CE
:101B40001F910F91FF90EF90DF90CF90BF90AF90DB
:101B50009F908F907F906F900C94DF022A960FB623
:101B6000F894DEBF0FBECDBFDF91CF911F910F91D3
:101B7000FF90EF90DF90CF90BF90AF909F908F90AD
:101B80007F906F900895DF92EF92FF920F931F93D3
:101B9000CF93DF93CDB7DEB72B970FB6F894DEBFA8
:101BA0000FBECDBFF42E052F162FE72ED82E6111B4
:101BB0000E94A817FE01319686E0DF011D928A95EA
:101BC000E9F77E2D4F2D502F612F8D2D9E810E9484
:101BD00075142B960FB6F894DEBF0FBECDBFDF9104
:101BE000CF911F910F91FF90EF90DF900895FC012E
:101BF000808191810E9449170895CF93882309F429
:101C0000A4C0C82F8238C1F40E94680C81FD9DC019
:101C100069E380910801909109010E948E190E9448
:101C2000D6172FEF81EE94E0215080409040E1F7ED
:101C300000C0000069E319C0833801F50E94680CF8
:101C400080FD83C063E580910801909109010E94A5
:101C50008E190E94D6172FEF81EE94E0215080401C
:101C60009040E1F700C0000063E580910801909189
:101C700009010E949919CF910C94D6178438C1F4A8
:101C80000E94680C82FD61C067E480910801909118
:101C900009010E948E190E94D6172FEF81EE94E061
:101CA000215080409040E1F700C0000067E4DDCFA4
:101CB0008CEF8C0F813AD0F46C2F809108019091B9
:101CC00009010E940E19882349F06C2F80910801A8
:101CD000909109010E9499190E94D6176C2F80914A
:101CE0000801909109010E948E19C5CF80E28C0FE6
:101CF000883048F4C77081E001C0880FCA95EAF7C0
:101D00000E948B17B8CFEBE5EC0FE33040F4F0E026
:101D1000E857FE4F808190E0CF910C949C0CE8E551
:101D2000EC0FE73150F4F0E0EE0FFF1FE65AFE4FE4
:101D300080819181CF910C94B20CCD3E30F08C2FEC
:101D40000E94A806CF910C947A07CF91089588231A
:101D500009F464C0823879F40E94680C81FF5EC087
:101D600069E380910801909109010E948E190E94F7
:101D7000D61769E310C08338B1F40E94680C80FF65
:101D80004DC063E580910801909109010E948E1970
:101D90000E94D61763E580910801909109010E9485
:101DA00099190C94D617843879F40E94680C82FF34
:101DB00035C067E480910801909109010E948E1955
:101DC0000E94D61767E4E7CF9CEF980F913A10F482
:101DD000682FE1CF90E2980F983050F4877091E02F
:101DE00001C0990F8A95EAF7892F0E949117D9CFE0
:101DF0009BE5980F933020F480E090E00C949C0CCD
:101E000098E5980F973120F480E090E00C94B20CA4
:101E10008D3E20F00E9403070C947A0708951F93CB
:101E2000CF93DF93182FEB010E94FD0D209741F017
:101E30008FE99FE00197F1F700C000002197F6CFEE
:101E4000812FDF91CF911F910C94A70E893319F048
:101E500060E070E002C060E570E00C940F0F882332
:101E600021F00E948B170C94D6170895882321F037
:101E70000E9491170C94D6170895CF92DF92EF929B
:101E8000FF920F931F93CF93DF937C01062FC72FF1
:101E9000FC01D281158112951F700E948117882341
:101EA00099F0DD2389F08C2F807F803421F080E24F
:101EB000800F883048F082E00E9420180E9481172D
:101EC00091E0D82ED92601C0D12CCC2EC2948FE01F
:101ED000C8228C2D90E0FC01EA5AFF4F0C94272277
:101EE0008C2F807FCF70882311F0C295C07FDD23B7
:101EF00099F0CC2309F48DC180E2800F883010F076
:101F0000011104C08C2F0E948B1703C08C2F0E94DC
:101F10009B170E94D6177DC1802F0E94A70ECC234D
:101F200009F49CC180E2800F883010F0011104C0D8
:101F30008C2F0E94911703C08C2F0E94A1170E9422
:101F4000D6178CC18C2F807FCF70803211F0C29554
:101F5000C07F002319F00130C9F022C0DD2371F0E9
:101F6000112341F0113031F40E94BB178C2B0E94D9
:101F7000C31774C10E94BB178C2B1DC0112319F00D
:101F8000113009F46BC10E94CC1725C0DD2321F06C
:101F9000163008F063C10EC0153008F05FC11BC0D9
:101FA000DD2361F0112331F0F701858180FF31C11C
:101FB0008F7085838C2F0E942F0F50C1112359F0F1
:101FC000093309F037C1FFEF27EE83E0F1502040DD
:101FD0008040E1F72DC18C2F0E94360F3FC18C2F1E
:101FE00086958695837019F0813061F037C1DD23C5
:101FF00021F0802F9C2F937002C080E090E00E941F
:102000009C0C34C1DD2321F0802F9C2F937002C0E3
:1020100080E090E00E94B20C29C1802FDD2319F0EE
:102020000E94A80602C00E9403070E947A071EC1F0
:102030008C2F837009F045C0D11114C1402F4295F7
:1020400046954770440F440F602F6F70862F90E0C5
:10205000A0E0B0E0042E04C0880F991FAA1FBB1F88
:102060000A94D2F704FF10C00FE010E020E030E047
:1020700004C0000F111F221F331F4A95D2F700958D
:1020800010952095309503C000E010E09801C695AA
:10209000C695C370BC01CD01602B712B822B932B95
:1020A000C23049F058F4C13019F00E94C615DAC0A8
:1020B0000E94B415D7C00E94D815D4C00E94B21592
:1020C000D1C0DD2319F08C2F817001C08695882343
:1020D00009F4C8C0402F429546954770440F440FFD
:1020E000602F6F70862F90E0A0E0B0E0042E04C057
:1020F000880F991FAA1FBB1F0A94D2F704FF10C0B4
:102100000FE010E020E030E004C0000F111F221F9C
:10211000331F4A95D2F7009510952095309503C04E
:1021200000E010E09801C695C695C370BC01CD01D2
:10213000602B712B822B932BC23049F058F4C130A5
:1021400019F00E948B168EC00E9479168BC00E94D7
:102150009D1688C00E94EC1585C0CF70DD2339F034
:102160008C2F0E941216802F0E942F0F7BC0802F71
:102170000E94360F8C2F0E94331674C0023F01F16B
:1021800028F4003F41F0013FA1F03FC0033FF9F0C8
:10219000043F39F13AC0DD2341F0153008F05EC04C
:1021A0008C2F8F710E94581659C0163008F056C0F7
:1021B000F7CFDD2339F08C2F8F710E9412164EC09D
:1021C000DD23C9F38C2F8F710E94331647C0DD23A6
:1021D00029F08C2F8F710E94FD1540C00E94F815C8
:1021E0003DC0DD2349F0CF718C2F0E94121663E0B1
:1021F0008C2F0E940B1832C081E00E9420181230F0
:1022000068F182E00E94201829C0DD2331F01123FB
:1022100091F2802F0E94FD0D21C0112399F2093304
:1022200049F49FEFE7EEF3E09150E040F040E1F732
:1022300000C00000802F0E94A70E10C04C2F4F70CE
:10224000602FC7010E94E8020E9423150FC04C2F87
:102250004F70602FC7010E94EB0208C088EF8C0D01
:10226000843020F40E94680C0E94DF02DD20C9F057
:102270000E947D1780FD15C0F70112820E9477171A
:102280000E941216C7010E9472110E947717DF91F7
:10229000CF911F910F91FF90EF90DF90CF900C9412
:1022A0003316DF91CF911F910F91FF90EF90DF9048
:1022B000CF9008950F931F93CF93DF93EC01688124
:1022C00079818A810E9454178C010E94AF160E9466
:1022D000A015B801CE010E943D0FDF91CF911F9153
:1022E0000F910895CF93DF93EC01988189812B8121
:1022F0003C81232B31F08F3F31F481E09F3F19F473
:1023000003C081E001C080E080FD19C0CE010E94C1
:10231000970281110CC00E948117882381F08A8165
:10232000882369F082E0DF91CF910C942018CE01D0
:102330000E945A11CE01DF91CF910C946E02DF9171
:10234000CF91089580E090E00E949C0C80E090E0A6
:102350000E94B20C0E94A8170E94B8170E94D617BC
:102360000E94AB080C947A078091080190910901B2
:102370000E94A4190C94A2110E9498170C94B411F5
:10238000E92FE295EF704E2F50E0FA013297EE30D0
:10239000F105B0F4EA59FF4F0C942722803F91F0E9
:1023A00018F4883E68F40EC0843F51F40BC0883E98
:1023B00048F0813F29F406C093FB882780F90895EF
:1023C00080E0089581E008950E9449170E94C0119D
:1023D0000895CF93DF9300D000D01F92CDB7DEB722
:1023E0000F900F900F900F900F90DF91CF91089565
:1023F000CF93DF9300D000D000D0CDB7DEB72696C4
:102400000FB6F894DEBF0FBECDBFDF91CF91089518
:102410001F93CF93DF93C091BC0116E08091BD0163
:10242000C81799F0D0E01C9FF0011D9FF00D1124FA
:10243000E254FE4F40815181628173818481958194
:102440000E94F8112196C770E9CFDF91CF911F91BB
:1024500008954091EE015091EF016091F00170916B
:10246000F1018091F2019091F3010C94F8110F9316
:102470001F93CF93DF938091F30182958F7009F0C2
:102480005DC08091F001882309F458C08091BC019F
:102490001091BD016091EE017091EF01C091F101C9
:1024A000D091F20191E06F3F09F090E0292F06E012
:1024B000811709F443C0209721F07F3F21F030E0DD
:1024C00003C031E001C0322F90E030FD34C0089FDE
:1024D000F001099FF00D1124DF01A254BE4F1196A7
:1024E0003C911197371327C03C91361324C01296A4
:1024F0003C91129731111FC013964D915C91149726
:102500004C1B5D0B483C5105B0F48091F3018F707A
:1025100080618093F301ED53FE4F80818F70806165
:1025200080838EEE91E00E947211DF91CF911F9116
:102530000F910C94081201968770BACFDF91CF915A
:102540001F910F9108959F92AF92BF92CF92DF9209
:10255000EF92FF920F931F93CF93DF93CDB7DEB728
:1025600061970FB6F894DEBF0FBECDBF8C0185E03A
:10257000F801DE011D9601900D928A95E1F7F801B0
:1025800040815181E2809091EE016091EF012091B4
:10259000F1013091F2012115310531F06F3F31F435
:1025A00081E09F3F19F403C081E001C080E0F82F73
:1025B000F1709F2E80FD46C1F801A380B4808EEE9D
:1025C000C82E81E0D82EF090F001F501E21BF30B4C
:1025D000FF2009F4DFC08091F301E83CF10508F029
:1025E0009BC0282F207F09F052C0561313C04913F7
:1025F00011C0FE2CE1100EC08F7080618093F3013A
:102600000E942912C6010E9472118091F301F80103
:10261000858358C1AB2831F05F3F31F481E04F3FF3
:1026200019F403C081E001C080E080FD03C081E0B7
:102630008E2502C080E090E0F82FF170FF2E80FF21
:102640001CC08091BC012091BD0136E0821709F4C5
:1026500017C190E0389FF001399FF00D1124E2542A
:10266000FE4F6181561306C06081461303C062812C
:10267000E61203C001968770E9CFFE2CEE2009F424
:1026800021C18091F30181608093F3015AC05613F8
:1026900006C0491304C0E11002C0F8019FC04D8775
:1026A0005E878D859E850E94E411882379F1EE2056
:1026B00069F12091F301822F82958F7090E002974B
:1026C00074F08091EE019091EF0198878F831986C5
:1026D000BB86AA862C87CE0107960E94721186E0DF
:1026E000F801AEEEB1E001900D928A95E1F70E94FB
:1026F00037120E9429120DC0561729F14D875E87A7
:102700008D859E850E94E41181112CC0C8010E9414
:102710007211FF24F394D6C0282F207F69F77A2DF9
:10272000B98AA88A6E2D89890E94E9118EEE91E0FE
:102730000E94721186E0F60111928A95E9F70E94D3
:102740002912F12CBFC04913D9CFE110D7CFF8011E
:102750008583C8010E94721186E0F60111928A9564
:10276000E9F7B0C0EE2091F22091F301822F82951B
:102770008F7090E002970CF4B2CF8091EE019091AF
:10278000EF019A8389831B82BD82AC822E83CE01A6
:102790000196A3CFE83CF10508F047C0FE2CEE20DF
:1027A00009F4B4CF561330C049132EC02091F30161
:1027B00020FD21C0822F82958F70482F50E0411557
:1027C0005105C9F0F80125834F30510541F08F5F65
:1027D000982F9295907F822F8F70892B8583C801C7
:1027E0000E94721186E0F801AEEEB1E001900D9208
:1027F0008A95E1F742C086E0F801AEEEB1E00190C3
:102800000D928A95E1F75EC04D875E878D859E8526
:102810000E94E411811163CF8091F3018160809364
:10282000F301C8010E9472114DC07A2DB98AA88A9D
:102830006E2D89890E94E91186E0F60111928A9530
:10284000E9F71BC0EE2009F461CF4D875E878D85C7
:102850009E850E94E411F82E882309F457CF86E064
:10286000F801AEEEB1E001900D928A95E1F78EEE9F
:1028700091E00E94F70D0E9437120E94291222C097
:102880004D875E878D859E850E944917292F229549
:102890002F70223028F49F7039F0811105C00BC0D1
:1028A000243028F49F7049F4805E883020F0C801FD
:1028B0000E9472119F2CF92C05C0F8019581907F20
:1028C00099F7F9CF8F2D61960FB6F894DEBF0FBE42
:1028D000CDBFDF91CF911F910F91FF90EF90DF90CF
:1028E000CF90BF90AF909F9008951F93CF93DF93A9
:1028F000CDB7DEB72C970FB6F894DEBF0FBECDBFB5
:102900004F83588769877A878B879C87CE01079684
:102910000E94A3128823D1F09F8188852A853B8558
:10292000232B31F08F3F31F481E09F3F19F403C036
:1029300081E001C080E080FD47C04F8158856985F6
:102940007A858B859C850E94F8113EC086E0FE0149
:102950003796DE01119601900D928A95E1F7FF817D
:10296000E8856A857B856115710531F0EF3F31F4AB
:1029700081E0FF3F19F403C081E001C080E080FDE9
:1029800023C02091BD0130E0C901019687709927CD
:102990004091BC0150E084179507F1F1F983EA8377
:1029A0007D836C8396E0929FD001939FB00D11249C
:1029B000A254BE4FFE01319601900D929A95E1F717
:1029C0008093BD010E94081216E08091BC01909195
:1029D000BD01891771F1189FC001112482549E4FC7
:1029E0000E94A312882329F1E091BC011E9FF001EF
:1029F0001124E254FE4F40815181628173818481B0
:102A000095810E94F8118091BC0190E00196877039
:102A100099278093BC01D9CF0E94BC111092BD01AF
:102A20001092BC01EEEEF1E086E0DF011D928A9586
:102A3000E9F72C960FB6F894DEBF0FBECDBFDF913D
:102A4000CF911F910895EF92FF920F931F93CF9311
:102A5000DF938C01892B09F46CC0F12CEE24E394F4
:102A6000E8012196F8018491843740F4843008F01D
:102A700051C0813081F0823019F15BC0853709F493
:102A800044C0A8F19CE7980F903708F052C08F77A8
:102A90000E94A70E41C00E5F1F4FFE01849190E27D
:102AA000980F983050F48770FE2D01C0FF0F8A9563
:102AB000EAF78F2F0E94AB1714C00E94FD0D2DC0A6
:102AC0000E5F1F4FFE01849190E2980F983060F4E2
:102AD0008770FE2D01C0FF0F8A95EAF78F2F0E94A5
:102AE000B1170E94D61719C00E94A70E16C00E5F1C
:102AF0001F4FFE01C491CC2381F08FE99FE0019725
:102B0000F1F700C00000C150F6CF0E5F1F4FFE016D
:102B1000F49003C00E94FD0D8E018F2D882309F4CF
:102B20009FCFEFE9FFE03197F1F700C0000081503F
:102B3000F5CFDF91CF911F910F91FF90EF90089506
:102B4000089508950C94A1150C94A2150E94A41543
:102B500060932A0270932B0280932C0290932D0293
:102B60000C94A2110C94A6150F931F9300912A02A6
:102B700010912B0220912C0230912D02602B712B91
:102B8000822B932B1F910F910C94A6150F931F93DB
:102B900000912A0210912B0220912C0230912D02DB
:102BA00060237123822393231F910F910C94A61508
:102BB0000F931F9300912A0210912B0220912C0257
:102BC00030912D0260277127822793271F910F9143
:102BD0000C94A6150C94A1150E94EA156093260288
:102BE0007093270280932802909329020C94A211DB
:102BF00060E070E0CB010C94EC150F931F9341E063
:102C000050E060E070E08A019B0104C0000F111FDA
:102C1000221F331F8A95D2F7C901B8011F910F9166
:102C20000C94EC150F931F9341E050E060E070E0CE
:102C300004C0440F551F661F771F8A95D2F78091F5
:102C4000260290912702A0912802B09129028A01C0
:102C50009B01082B192B2A2B3B2BC901B8011F9173
:102C60000F910C94EC150F931F9341E050E060E03E
:102C700070E004C0440F551F661F771F8A95D2F776
:102C8000409550956095709580912602909127020D
:102C9000A0912802B09129028A019B0108231923DF
:102CA0002A233B23C901B8011F910F910C94EC1505
:102CB0000F931F9341E050E060E070E004C0440FC8
:102CC000551F661F771F8A95D2F780912602909133
:102CD0002702A0912802B09129028A019B010827AE
:102CE00019272A273B27C901B8011F910F910C947E
:102CF000EC150F931F93009126021091270220914B
:102D0000280230912902602B712B822B932B1F916B
:102D10000F910C94EC150F931F93009126021091C4
:102D200027022091280230912902602371238223F7
:102D300093231F910F910C94EC150F931F93009107
:102D40002602109127022091280230912902602743
:102D50007127822793271F910F910C94EC150895EA
:102D60002FE0929F800D1124E82FE695E695E695D9
:102D7000877051E001C0550F8A95EAF785E0E89F1A
:102D8000F0011124EC50FE4F20E030E070E0408173
:102D9000CB01022E02C0969587950A94E2F78170C6
:102DA000819584278523842781932F5F3F4F25308A
:102DB000310569F708952FE0929F800D1124682F47
:102DC000669566956695982F977085E0689FB00127
:102DD000112440E050E080E0FB01E40FF51FEC50CF
:102DE000FE4F208130E0092E02C0369527950A94C7
:102DF000E2F721703327042E01C0220F0A94EAF76C
:102E0000822B4F5F5F4F4530510531F70895BF92D8
:102E1000CF92DF92EF92FF920F931F93CF93DF93A6
:102E20008C01C0902602D0902702E0902802F090FA
:102E3000290280912A0290912B02A0912C02B0913C
:102E40002D02C82AD92AEA2AFB2ACFE1D0E0D701ED
:102E5000C6010C2E04C0B695A795979587950A9440
:102E6000D2F780FD04C0219790F7B12C07C0BC2E8B
:102E7000B8018C2F0E9407030197A9F38B2DDF91D6
:102E8000CF911F910F91FF90EF90DF90CF90BF9067
:102E90000895CF93DF93EC010E940717BE010E94B3
:102EA0000703DF91CF9108951F93CF93DF93EB0139
:102EB0009091BB01992321F0CB010E94491713C0C7
:102EC000882349F0CB010E940717182F682FCE01E5
:102ED0000E94B01604C0CB010E94DB16182FBE0161
:102EE000812F0E940703DF91CF911F910895809158
:102EF0002E02859585958595089580912E0287707F
:102F0000089590912E02977081E009F480E0089571
:102F100080915202089590915202892B809352021F
:102F200008958095909152028923809352020895CA
:102F300010925202089590915102892B8093510270
:102F400008958095909151028923809351020895AC
:102F500010925102089590915002892B8093500253
:102F6000089580959091500289238093500208958E
:102F700010925002089580912F02089508950C94A4
:102F8000BE170C94BF1790912F02981721F08093D1
:102F90002F020C94C117089580912F02882329F0E5
:102FA00010922F0280E00C94C1170895E09108015F
:102FB000F0910901809152028083E0910801F09123
:102FC0000901908180915102892B8083E091080151
:102FD000F0910901908180915002892B808380912A
:102FE0002F02882381F0E0910801F091090190817E
:102FF000892B808380910801909109010E94F81823
:1030000081110E94CC1780910801909109010C94C4
:10301000740C0C94BE1798E0899F90011124262B04
:1030200020932E020E94121680912E02859585957E
:1030300085950C94091810922E0280E00C940918C2
:1030400020912E028095822380932E02982F9770D4
:1030500079F430E0482F082E000C550B2417350763
:1030600039F08595859585950E9433160C941B182B
:10307000089580E008956FEF7FEF80E090E00C947A
:10308000732280E090E00E944F2221E08B3E9E4F11
:1030900009F020E0822F089582E090E00C9447220E
:1030A00083E090E00C944722CF9384E090E00E946C
:1030B0004722C82F81E290E00E9447222C2F30E067
:1030C000A901582BCA01CF910895CF93C92F682F1A
:1030D00084E090E00E9455226C2F81E290E0CF9135
:1030E0000C94552286E090E00C944722682F86E0ED
:1030F00090E00C945522AB01BC018FE090E00C9461
:103100006722AB01BC0183E190E00C94672260E090
:1031100070E0CB010C94811860E070E0CB010E945C
:103120007B180C9487186BEE7EEF80E090E00E9495
:10313000732260E082E090E00E94552260E083E02C
:1031400090E00E94552210922A0210922B021092B7
:103150002C0210922D0260E084E090E00E94552243
:1031600060E081E290E00E94552260E085E090E01E
:103170000E94552260E086E090E00E9455226FEFA9
:1031800087E090E00E94552240E050E0BA0188E0DC
:1031900090E00E94672260E08DE090E00E9455225E
:1031A00040E050E0BA0188E190E00E94672260E0D0
:1031B00087E190E00E94552240E050E0BA018CE1A6
:1031C00090E00E94672260E080E290E00E94552239
:1031D00040E050E0BA0188E190E00E9467220C9440
:1031E0008C180C949318682F8EE090E00C94552264
:1031F000FC01329680911401882331F08091900275
:1032000087FF02C09EE101C096E080E0915028F067
:1032100021912223D9F38F5FF9CF0895662351F1CD
:10322000209114012223E9F02091900227FF19C078
:10323000462F4695469546954E31E0F4677021E05D
:1032400030E002C0220F331F6A95E2F7FC01E40F61
:10325000F11D828190E02823392381E0232B69F43A
:1032600009C0FC01329608962191621729F0E817EF
:10327000F907D1F780E0089581E008959C01FC01F1
:1032800032969FEF80E04191461789F09F3F19F4F5
:10329000411101C0982F8F5F8630A9F79F3F39F009
:1032A000F901E90FF11D97FDFA95628308950895DC
:1032B0009C012A5F3F4FFC014281461301C01282EC
:1032C000019682179307B9F70895262F269526951C
:1032D00026952E3168F4FC01E20FF11D677021E0A4
:1032E00030E001C0220F6A95EAF78281282B228301
:1032F0000895262F2695269526952E3170F4FC01EB
:10330000E20FF11D677021E030E001C0220F6A95E5
:10331000EAF72095828128232283089520911401C1
:10332000222329F02091900227FD0C9465190C941A
:103330003E1920911401222329F02091900227FDAB
:103340000C9479190C94581920911401FC013296AF
:10335000222331F08091900287FF02C08EE101C0EC
:1033600086E0DF011D928A95E9F7089508950C948F
:10337000B6190C94B619CF930E94B9190E9458053A
:103380000E94B719C0E08C2F0E94F604892B29F403
:10339000CF5FC530C1F780E001C081E0CF910895D3
:1033A0000C94B6190C94D01980919602843061F176
:1033B0000E94D21980E00E94C80980E00E94DF02CA
:1033C0001092540220E488E190E00FB6F894A8959A
:1033D000809360000FBE2093600083B7817F84607C
:1033E00083BF83B7816083BF7894889583B78E7FCE
:1033F00083BF0FB6F894A895809160008861809390
:103400006000109260000FBE08950C94B6190E94DF
:10341000BC110E94B9080E94680C0E94DF020C9443
:10342000051A1F920F920FB60F9211248F939F933C
:10343000AF93BF9380915402811113C080918C028D
:1034400090918D02A0918E02B0918F024196A11DA4
:10345000B11D80938C0290938D02A0938E02B09345
:103460008F02BF91AF919F918F910F900FBE0F90E0
:103470001F90189582E084BD93E095BD9AEF97BDAB
:1034800080936E0008952FB7F89480918C029091EC
:103490008D02A0918E02B0918F022FBF08952FB799
:1034A000F89460918C0270918D0280918E029091BF
:1034B0008F022FBF08959C014FB7F89480918C0222
:1034C00090918D02A0918E02B0918F024FBF821B0E
:1034D000930B089578941F920F920FB60F921124B8
:1034E0008F939F93AF93BF9380918C0290918D02A5
:1034F000A0918E02B0918F020196A11DB11D809303
:103500008C0290938D02A0938E02B0938F02BF9194
:10351000AF919F918F910F900FBE0F901F901895B4
:1035200081E08093E00080E28093D8001092C9008F
:103530008FE19EE40197F1F700C0000087E090EB77
:10354000DC0180939F029093A002A093A102B0930C
:10355000A2029CE088E10FB6F894A89580936000E1
:103560000FBE90936000FFCF90938D0180938C01EC
:1035700008950C943B180E9458058FEB9DE5019728
:10358000F1F700C000000E94580580E00E94F60498
:1035900080FF04C00E94B91A0C94901A08950E94EA
:1035A0004118811102C00E94F1180E944C188093AA
:1035B00053020E94541890939102809390020E94AB
:1035C0005018682F70E080E090E00E94B215609182
:1035D00026027091270280912802909129020C9472
:1035E000EA15809175020895CF93DF9300D01F9262
:1035F000CDB7DEB790919602943019F589837B831D
:103600006A8382E08093E9008FEF9091E800815017
:1036100095FD06C095ED9A95F1F700008111F5CF63
:103620008091E80085FF0DC040E050E063E070E06D
:10363000CE0101960E942F1D8091E8008E77809325
:10364000E8000F900F900F90DF91CF910895BC018B
:1036500084E00C94F41ABC0183E00C94F41A22E088
:103660002093E9002FEF3091E800215035FD06C08E
:1036700035ED3A95F1F700002111F5CF2091E800E2
:1036800025FF0BC040E050E066E070E00E942F1D77
:103690008091E8008E778093E8000895CF93DF93C0
:1036A00020911401222339F02091900227FF03C0BA
:1036B00060E222E002C068E021E02093E9002FEF01
:1036C0003091E800215035FD06C035ED3A95F1F70F
:1036D00000002111F5CF2091E80025FF1DC0EC016D
:1036E00080911401811105C040E050E068E070E075
:1036F00003C070E040E050E0CE010E942F1D809199
:10370000E8008E778093E80080E2FE01A5E5B2E054
:1037100001900D928A95E1F7DF91CF910895809104
:103720009502811109C00E94C01E0E941D1F809138
:10373000E20084608093E20008951092950208955B
:1037400008950895089542E061EC81E00E94391ED9
:1037500042E261EC82E00C94391E80919802833041
:1037600009F460C030F4813071F0823009F499C0FE
:1037700008958A3009F485C08B3009F46BC0893014
:1037800009F0A7C020C080919702813A09F0A1C03A
:103790008091E800877F8093E80080919B02909160
:1037A0009C02892B21F460E285E592E003C060E091
:1037B00080E090E070E00E947A1D8091E8008B77B5
:1037C0008093E800089580919702813209F081C0CA
:1037D00080919B0290919C02029708F07AC08091A0
:1037E000E800877F8093E8008091E80082FD05C0B3
:1037F000809196028111F8CF6CC02091F3008091E6
:10380000F20090E0922B029729F48091F1008B7FD7
:10381000813021F48091F100809375028091E8005D
:103820008B7753C080919702813A09F052C0809102
:103830009B0290919C02892B09F04BC08091E8007B
:10384000877F8093E8008091E80080FFFCCF809123
:10385000140136C0809197028132D9F580919B0284
:1038600090919C02892BA9F58091E800877F809335
:10387000E8000E946E1E80919902809314010C94BE
:10388000BC1180919702813221F58091E800877FF9
:103890008093E8000E946E1E80919A0280937602C7
:1038A000089580919702813AA1F48091E800877F82
:1038B0008093E8008091E80080FFFCCF8091760241
:1038C0008093F1008091E8008E778093E8000C945B
:1038D0006E1E089584B7877F84BF0FB6F894A895AD
:1038E00080916000886180936000109260000FBE3C
:1038F00090E080E80FB6F8948093610090936100A7
:103900000FBE0E94F30C0E94C01E0E941D1F8091DA
:10391000E20084608093E20078940E94B2210E94C9
:10392000FD0C8AE091E00E94630C80919602853044
:10393000F1F4809196028530C1F40E94D4198091EF
:1039400094028823B1F30E94BB19882391F30E944B
:10395000191D0E94BC112FEF83EC99E0215080408B
:103960009040E1F700C00000E4CF0E94071A0E94D7
:10397000070D0E94E70C0E94E60CD7CF0C94C01CE8
:10398000292F332723303105C9F060F42130310568
:1039900081F02230310509F044C08BE390E02CE542
:1039A00032E043C021323105E1F02232310549F1E4
:1039B00038C082E190E027E932E037C099278130B2
:1039C000910549F028F0029761F5E8E2F2E005C0C0
:1039D000E8E5F2E002C0E6E4F2E0849190E09F01C5
:1039E00024C06115710541F061307105D1F489E0A1
:1039F00090E027E832E019C089E090E02EE632E05E
:103A000014C06115710541F06130710551F486EB08
:103A100090E029EA32E009C080E490E02FE533E04D
:103A200004C080E090E020E030E0FA0131832083A0
:103A3000089580E189BD82E189BD09B400FEFDCF12
:103A40008091D8008F7D8093D8008091E0008260C3
:103A50008093E0008091E00081FDFCCF0895CF923B
:103A6000DF92EF92FF920F931F93CF93DF93EC01BE
:103A70008B017A010E948D1E811133C0E114F10483
:103A800039F0F70180819181081B190BC80FD91FEC
:103A9000C12CD12C0115110519F18091E80085FD8B
:103AA00016C08091E8008E778093E800E114F1045D
:103AB00049F0F70180819181C80ED91ED182C08260
:103AC00085E00FC00E948D1E882321F30AC08991D2
:103AD0008093F10001501109FFEFCF1ADF0ADACF0E
:103AE00080E0DF91CF911F910F91FF90EF90DF90D9
:103AF000CF90089520919D0230919E02261737079E
:103B000048F06115710539F42091E8002E77209373
:103B1000E80001C0B901FC0120E06115710579F1EF
:103B2000809196028823F1F18530F1F18091E800CF
:103B300083FD3CC08091E80082FD2EC08091E800AA
:103B400080FFEBCF2091F3008091F20090E0922B68
:103B50006115710551F08830910538F42191209359
:103B6000F100615071090196F3CF21E0089709F047
:103B700020E08091E8008E778093E800CECF21117D
:103B8000CFCF0AC080919602882361F0853061F022
:103B90008091E80083FD0AC08091E80082FFF2CFA7
:103BA00080E0089582E0089583E0089581E008951B
:103BB00020919D0230919E022617370748F061152B
:103BC000710539F42091E8002E772093E80001C0B8
:103BD000B901FC0120E06115710591F18091960217
:103BE000882309F440C0853009F43FC08091E80083
:103BF00083FD3DC08091E80082FD2FC08091E800E8
:103C000080FFE9CF2091F3008091F20090E0922BA9
:103C10006115710559F08830910540F42491209385
:103C2000F1003196615071090196F2CF21E00897B9
:103C300009F020E08091E8008E778093E800CBCFF8
:103C40002111CCCF0AC080919602882361F0853083
:103C500061F08091E80083FD0AC08091E80082FF56
:103C6000F2CF80E0089582E0089583E0089581E036
:103C70000895982F973068F59093E900981739F0D8
:103C80007091EC002091ED005091F00003C0242FC2
:103C9000762F50E021FD02C09F5FECCF3091EB000A
:103CA0003E7F3093EB003091ED003D7F3093ED008F
:103CB0003091EB0031603093EB007093EC00209377
:103CC000ED005093F0002091EE0027FDE5CF80E05D
:103CD00008958F708093E90081E0089580919702A4
:103CE00087FF11C08091E80082FD05C08091960297
:103CF0008111F8CF11C08091E8008B770BC08091C3
:103D00009602882349F08091E80080FFF8CF8091E7
:103D1000E8008E778093E80008952091E4003091C8
:103D2000E50095E64091EC00842F817040FF23C0B0
:103D30008091E80080FD1DC080919602882399F053
:103D4000853099F08091EB0085FD11C04091E40031
:103D50005091E5002417350729F3915011F09A018D
:103D6000E1CF84E0089582E0089583E0089581E042
:103D7000089580E008954091E80042FFDDCF089566
:103D80000E942E1F0E94361FE0EEF0E080818160CD
:103D90008083E8EDF0E080818F77808319BCA7ED08
:103DA000B0E08C918E7F8C9380818F7E8083109287
:103DB000950208950F931F93CF93DF930E942E1FB8
:103DC0000E94361FC8EDD0E088818F778883888174
:103DD0008068888388818F7D888319BC10929602C1
:103DE00010929202109294021092930200EE10E050
:103DF000F80180818B7F808388818160888342E0A5
:103E000060E080E00E94391EE1EEF0E080818E7F6C
:103E10008083E2EEF0E08081816080838081886031
:103E20008083F80180818E7F808388818061888390
:103E3000DF91CF911F910F910895E8EDF0E080811F
:103E40008F7E8083E7EDF0E080818160808384E075
:103E500082BF81E0809395020C94DA1EE8EDF0E0D9
:103E600080818E7F80831092E20008951092DA00A4
:103E70001092E10008951F920F920FB60F92112435
:103E80002F933F934F935F936F937F938F939F9362
:103E9000AF93BF93EF93FF938091E10082FF0BC03C
:103EA0008091E20082FF07C08091E1008B7F8093C8
:103EB000E1000E94B1218091DA0080FF1FC0809153
:103EC000D80080FF1BC08091DA008E7F8093DA00DB
:103ED0008091D90080FF0DC080E189BD82E189BD5C
:103EE00009B400FEFDCF81E0809396020E948F1BF3
:103EF00005C019BC109296020E949D1B8091E100A2
:103F000080FF19C08091E20080FF15C08091E2001F
:103F10008E7F8093E2008091E20080618093E200D6
:103F20008091D80080628093D80019BC85E080938E
:103F300096020E94A11B8091E10084FF30C0809115
:103F4000E20084FF2CC080E189BD82E189BD09B413
:103F500000FEFDCF8091D8008F7D8093D8008091A6
:103F6000E1008F7E8093E1008091E2008F7E80935C
:103F7000E2008091E20081608093E20080919202F1
:103F8000882311F084E007C08091E30087FD02C020
:103F900081E001C083E0809396020E94A21B809181
:103FA000E10083FF29C08091E20083FF25C080915A
:103FB000E100877F8093E10082E080939602109277
:103FC00092028091E1008E7F8093E1008091E20077
:103FD0008E7F8093E2008091E20080618093E20016
:103FE00042E060E080E00E94391E8091F00088602D
:103FF0008093F0000E94A01BFF91EF91BF91AF91C1
:104000009F918F917F916F915F914F913F912F91F0
:104010000F900FBE0F901F9018951F920F920FB622
:104020000F9211242F933F934F935F936F937F933E
:104030008F939F93AF93BF93CF93DF93EF93FF93B0
:10404000C091E900CF708091EC00D82FD17080FD35
:10405000D0E81092E9008091F000877F8093F00013
:1040600078940E9451201092E9008091F0008860BD
:104070008093F000CD2BCF70C093E900FF91EF91BA
:10408000DF91CF91BF91AF919F918F917F916F9170
:104090005F914F913F912F910F900FBE0F901F9006
:1040A00018951F93CF93DF93CDB7DEB7AA970FB6BE
:1040B000F894DEBF0FBECDBFE7E9F2E08091F100DA
:1040C000819322E0EF39F207C9F70E94AD1B80917E
:1040D000E80083FF2EC18091970290919802492FAA
:1040E00050E04A30510508F024C1FA01EC58FF4F66
:1040F0000C942722803821F0823809F01AC108C0B8
:104100008091930290919402992389F082600FC06C
:1041100080919B028F70873008F00BC18093E9007B
:104120008091EB0085FB882780F91092E90090913F
:10413000E800977F9093E8008093F1001092F100DF
:10414000D1C0282F2D7F09F0F4C0882319F08230C8
:1041500061F0EFC080919902813009F0EAC093309C
:1041600009F080E0809394022EC080919902811121
:104170002AC080919B028F702FEF280F263008F005
:10418000D8C08093E9002091EB0020FF1CC0933041
:1041900021F48091EB00806214C09091EB0090615B
:1041A0009093EB0021E030E0A90102C0440F551FBD
:1041B0008A95E2F74093EA001092EA008091EB00C2
:1041C00088608093EB001092E9008091E800877F7F
:1041D0008093E8000E946E1EACC08111AAC01091AD
:1041E00099021F778091E3008078812B8093E30010
:1041F0008091E800877F8093E8000E946E1E809186
:10420000E80080FFFCCF8091E30080688093E300AA
:10421000111102C082E001C083E08093960289C040
:104220008058823008F085C08091990290919A025E
:104230008C3D53E0950779F583E08A838AE2898390
:104240004FB7F894DE01139620E03EE051E2E32FF1
:10425000F0E050935700E49120FF03C0E295EF7027
:104260003F5FEF708E2F90E0EA3010F0C79601C0EC
:10427000C0968D939D932F5F243149F74FBF809156
:10428000E800877F8093E8006AE270E0CE01019643
:104290000E947A1D16C060919B0270919C02AE0133
:1042A0004F5F5F4F0E94BE1CBC01892B09F441C0C7
:1042B0009091E800977F9093E80089819A810E940D
:1042C000D81D8091E8008B778093E80032C0803859
:1042D00081F58091E800877F8093E80080919202C9
:1042E0008093F1008091E8008E7772CF811121C018
:1042F0008091990290919A0299270297D4F4809123
:10430000E800877F8093E800809199028093920271
:104310000E946E1E80919202811106C08091E3007E
:1043200087FD02C081E001C084E0809396020E9474
:10433000A31B8091E80083FF0AC08091E800877F7B
:104340008093E8008091EB0080628093EB00AA9656
:104350000FB6F894DEBF0FBECDBFDF91CF911F9196
:1043600008950895CF93809196028823A1F0C0917B
:10437000E900CF709091EC00892F817090FD80E86A
:10438000C82B1092E9008091E80083FD0E94512023
:10439000CF70C093E900CF910895DB018F939F9375
:1043A0000E943C22BF91AF91A29F800D911DA39FBF
:1043B000900DB29F900D11240895AA1BBB1B51E1D3
:1043C00007C0AA1FBB1FA617B70710F0A61BB70B85
:1043D000881F991F5A95A9F780959095BC01CD012A
:1043E000089597FB072E16F4009407D077FD09D0A7
:1043F0000E94DD2107FC05D03EF4909581959F4FEA
:104400000895709561957F4F0895A1E21A2EAA1B19
:10441000BB1BFD010DC0AA1FBB1FEE1FFF1FA21774
:10442000B307E407F50720F0A21BB30BE40BF50B71
:10443000661F771F881F991F1A9469F760957095FA
:10444000809590959B01AC01BD01CF010895EE0FC1
:10445000FF1F0590F491E02D0994A29FB001B39F36
:10446000C001A39F700D811D1124911DB29F700D7D
:10447000811D1124911D08950E942D22A59F900D4C
:10448000B49F900DA49F800D911D11240895F9995A
:10449000FECF92BD81BDF89A992780B50895A8E115
:1044A000B0E042E050E00C947B22262FF999FECF39
:1044B00092BD81BDF89A019700B4021639F01FBA77
:1044C00020BD0FB6F894FA9AF99A0FBE0895039694
:1044D000272F0E9456220E945522252F0E945622E5
:1044E000242F0C9456220196272F0E9456220C94BA
:1044F0005522DC01CB01FC01F999FECF06C0F2BDCB
:10450000E1BDF89A319600B40D9241505040B8F791
:064510000895F894FFCFAE
:104516002808641E140A321E3002F11A4E1B2F1B85
:104526002B1B271B01E200E900EA00B500B600B725
:1045360000CD008301CC008A01920194012102235F
:104546000224022502260227022A02B300B4006FC3
:104556000070008182836667F7F6F5F4F130313238
:104566003337929395F036963497E200E900EA00E5
:10457600B500B600B700CD008301CC008A019201D8
:1045860094012102230224022502260227022A027E
:0C459600B300B4006F007000818283004D
:00000001FF
